{"abi":[{"inputs":[{"internalType":"uint256","name":"_minimum","type":"uint256"},{"internalType":"address","name":"_sender","type":"address"}],"stateMutability":"nonpayable","type":"constructor"},{"inputs":[{"internalType":"uint256","name":"_index","type":"uint256"}],"name":"approveRequest","outputs":[],"stateMutability":"nonpayable","type":"function"},{"inputs":[],"name":"approversCount","outputs":[{"internalType":"uint256","name":"","type":"uint256"}],"stateMutability":"view","type":"function"},{"inputs":[],"name":"contribute","outputs":[],"stateMutability":"payable","type":"function"},{"inputs":[{"internalType":"uint256","name":"_index","type":"uint256"}],"name":"finalizeRequest","outputs":[],"stateMutability":"nonpayable","type":"function"},{"inputs":[],"name":"manager","outputs":[{"internalType":"address","name":"","type":"address"}],"stateMutability":"view","type":"function"},{"inputs":[],"name":"minimumContribution","outputs":[{"internalType":"uint256","name":"","type":"uint256"}],"stateMutability":"view","type":"function"},{"inputs":[],"name":"numRequests","outputs":[{"internalType":"uint256","name":"","type":"uint256"}],"stateMutability":"view","type":"function"},{"inputs":[{"internalType":"string","name":"_description","type":"string"},{"internalType":"uint256","name":"_value","type":"uint256"},{"internalType":"address payable","name":"_recipient","type":"address"}],"name":"request","outputs":[],"stateMutability":"nonpayable","type":"function"},{"inputs":[{"internalType":"uint256","name":"","type":"uint256"}],"name":"requests","outputs":[{"internalType":"string","name":"description","type":"string"},{"internalType":"address payable","name":"recipient","type":"address"},{"internalType":"uint256","name":"value","type":"uint256"},{"internalType":"bool","name":"complete","type":"bool"},{"internalType":"uint256","name":"approvalCount","type":"uint256"}],"stateMutability":"view","type":"function"}],"devdoc":{"kind":"dev","methods":{},"version":1},"evm":{"assembly":"    /* \"campaign.sol\":457:2402  contract Campaign {... */\n  mstore(0x40, 0x80)\n    /* \"campaign.sol\":708:709  0 */\n  0x00\n    /* \"campaign.sol\":676:709  uint256 public approversCount = 0 */\n  0x05\n  sstore\n    /* \"campaign.sol\":934:1058  constructor(uint256 _minimum, address _sender) {... */\n  callvalue\n  dup1\n  iszero\n  tag_1\n  jumpi\n  0x00\n  dup1\n  revert\ntag_1:\n  pop\n  mload(0x40)\n  sub(codesize, bytecodeSize)\n  dup1\n  bytecodeSize\n  dup4\n  codecopy\n  dup2\n  dup2\n  add\n  0x40\n  mstore\n  dup2\n  add\n  swap1\n  tag_2\n  swap2\n  swap1\n  tag_3\n  jump\t// in\ntag_2:\n    /* \"campaign.sol\":1002:1009  _sender */\n  dup1\n    /* \"campaign.sol\":992:999  manager */\n  0x00\n  dup1\n    /* \"campaign.sol\":992:1009  manager = _sender */\n  0x0100\n  exp\n  dup2\n  sload\n  dup2\n  0xffffffffffffffffffffffffffffffffffffffff\n  mul\n  not\n  and\n  swap1\n  dup4\n  0xffffffffffffffffffffffffffffffffffffffff\n  and\n  mul\n  or\n  swap1\n  sstore\n  pop\n    /* \"campaign.sol\":1042:1050  _minimum */\n  dup2\n    /* \"campaign.sol\":1020:1039  minimumContribution */\n  0x01\n    /* \"campaign.sol\":1020:1050  minimumContribution = _minimum */\n  dup2\n  swap1\n  sstore\n  pop\n    /* \"campaign.sol\":934:1058  constructor(uint256 _minimum, address _sender) {... */\n  pop\n  pop\n    /* \"campaign.sol\":457:2402  contract Campaign {... */\n  jump(tag_6)\n    /* \"#utility.yul\":88:205   */\ntag_8:\n    /* \"#utility.yul\":197:198   */\n  0x00\n    /* \"#utility.yul\":194:195   */\n  dup1\n    /* \"#utility.yul\":187:199   */\n  revert\n    /* \"#utility.yul\":334:411   */\ntag_10:\n    /* \"#utility.yul\":371:378   */\n  0x00\n    /* \"#utility.yul\":400:405   */\n  dup2\n    /* \"#utility.yul\":389:405   */\n  swap1\n  pop\n    /* \"#utility.yul\":334:411   */\n  swap2\n  swap1\n  pop\n  jump\t// out\n    /* \"#utility.yul\":417:539   */\ntag_11:\n    /* \"#utility.yul\":490:514   */\n  tag_23\n    /* \"#utility.yul\":508:513   */\n  dup2\n    /* \"#utility.yul\":490:514   */\n  tag_10\n  jump\t// in\ntag_23:\n    /* \"#utility.yul\":483:488   */\n  dup2\n    /* \"#utility.yul\":480:515   */\n  eq\n    /* \"#utility.yul\":470:533   */\n  tag_24\n  jumpi\n    /* \"#utility.yul\":529:530   */\n  0x00\n    /* \"#utility.yul\":526:527   */\n  dup1\n    /* \"#utility.yul\":519:531   */\n  revert\n    /* \"#utility.yul\":470:533   */\ntag_24:\n    /* \"#utility.yul\":417:539   */\n  pop\n  jump\t// out\n    /* \"#utility.yul\":545:688   */\ntag_12:\n    /* \"#utility.yul\":602:607   */\n  0x00\n    /* \"#utility.yul\":633:639   */\n  dup2\n    /* \"#utility.yul\":627:640   */\n  mload\n    /* \"#utility.yul\":618:640   */\n  swap1\n  pop\n    /* \"#utility.yul\":649:682   */\n  tag_26\n    /* \"#utility.yul\":676:681   */\n  dup2\n    /* \"#utility.yul\":649:682   */\n  tag_11\n  jump\t// in\ntag_26:\n    /* \"#utility.yul\":545:688   */\n  swap3\n  swap2\n  pop\n  pop\n  jump\t// out\n    /* \"#utility.yul\":694:820   */\ntag_13:\n    /* \"#utility.yul\":731:738   */\n  0x00\n    /* \"#utility.yul\":771:813   */\n  0xffffffffffffffffffffffffffffffffffffffff\n    /* \"#utility.yul\":764:769   */\n  dup3\n    /* \"#utility.yul\":760:814   */\n  and\n    /* \"#utility.yul\":749:814   */\n  swap1\n  pop\n    /* \"#utility.yul\":694:820   */\n  swap2\n  swap1\n  pop\n  jump\t// out\n    /* \"#utility.yul\":826:922   */\ntag_14:\n    /* \"#utility.yul\":863:870   */\n  0x00\n    /* \"#utility.yul\":892:916   */\n  tag_29\n    /* \"#utility.yul\":910:915   */\n  dup3\n    /* \"#utility.yul\":892:916   */\n  tag_13\n  jump\t// in\ntag_29:\n    /* \"#utility.yul\":881:916   */\n  swap1\n  pop\n    /* \"#utility.yul\":826:922   */\n  swap2\n  swap1\n  pop\n  jump\t// out\n    /* \"#utility.yul\":928:1050   */\ntag_15:\n    /* \"#utility.yul\":1001:1025   */\n  tag_31\n    /* \"#utility.yul\":1019:1024   */\n  dup2\n    /* \"#utility.yul\":1001:1025   */\n  tag_14\n  jump\t// in\ntag_31:\n    /* \"#utility.yul\":994:999   */\n  dup2\n    /* \"#utility.yul\":991:1026   */\n  eq\n    /* \"#utility.yul\":981:1044   */\n  tag_32\n  jumpi\n    /* \"#utility.yul\":1040:1041   */\n  0x00\n    /* \"#utility.yul\":1037:1038   */\n  dup1\n    /* \"#utility.yul\":1030:1042   */\n  revert\n    /* \"#utility.yul\":981:1044   */\ntag_32:\n    /* \"#utility.yul\":928:1050   */\n  pop\n  jump\t// out\n    /* \"#utility.yul\":1056:1199   */\ntag_16:\n    /* \"#utility.yul\":1113:1118   */\n  0x00\n    /* \"#utility.yul\":1144:1150   */\n  dup2\n    /* \"#utility.yul\":1138:1151   */\n  mload\n    /* \"#utility.yul\":1129:1151   */\n  swap1\n  pop\n    /* \"#utility.yul\":1160:1193   */\n  tag_34\n    /* \"#utility.yul\":1187:1192   */\n  dup2\n    /* \"#utility.yul\":1160:1193   */\n  tag_15\n  jump\t// in\ntag_34:\n    /* \"#utility.yul\":1056:1199   */\n  swap3\n  swap2\n  pop\n  pop\n  jump\t// out\n    /* \"#utility.yul\":1205:1712   */\ntag_3:\n    /* \"#utility.yul\":1284:1290   */\n  0x00\n    /* \"#utility.yul\":1292:1298   */\n  dup1\n    /* \"#utility.yul\":1341:1343   */\n  0x40\n    /* \"#utility.yul\":1329:1338   */\n  dup4\n    /* \"#utility.yul\":1320:1327   */\n  dup6\n    /* \"#utility.yul\":1316:1339   */\n  sub\n    /* \"#utility.yul\":1312:1344   */\n  slt\n    /* \"#utility.yul\":1309:1428   */\n  iszero\n  tag_36\n  jumpi\n    /* \"#utility.yul\":1347:1426   */\n  tag_37\n  tag_8\n  jump\t// in\ntag_37:\n    /* \"#utility.yul\":1309:1428   */\ntag_36:\n    /* \"#utility.yul\":1467:1468   */\n  0x00\n    /* \"#utility.yul\":1492:1556   */\n  tag_38\n    /* \"#utility.yul\":1548:1555   */\n  dup6\n    /* \"#utility.yul\":1539:1545   */\n  dup3\n    /* \"#utility.yul\":1528:1537   */\n  dup7\n    /* \"#utility.yul\":1524:1546   */\n  add\n    /* \"#utility.yul\":1492:1556   */\n  tag_12\n  jump\t// in\ntag_38:\n    /* \"#utility.yul\":1482:1556   */\n  swap3\n  pop\n    /* \"#utility.yul\":1438:1566   */\n  pop\n    /* \"#utility.yul\":1605:1607   */\n  0x20\n    /* \"#utility.yul\":1631:1695   */\n  tag_39\n    /* \"#utility.yul\":1687:1694   */\n  dup6\n    /* \"#utility.yul\":1678:1684   */\n  dup3\n    /* \"#utility.yul\":1667:1676   */\n  dup7\n    /* \"#utility.yul\":1663:1685   */\n  add\n    /* \"#utility.yul\":1631:1695   */\n  tag_16\n  jump\t// in\ntag_39:\n    /* \"#utility.yul\":1621:1695   */\n  swap2\n  pop\n    /* \"#utility.yul\":1576:1705   */\n  pop\n    /* \"#utility.yul\":1205:1712   */\n  swap3\n  pop\n  swap3\n  swap1\n  pop\n  jump\t// out\n    /* \"campaign.sol\":457:2402  contract Campaign {... */\ntag_6:\n  dataSize(sub_0)\n  dup1\n  dataOffset(sub_0)\n  0x00\n  codecopy\n  0x00\n  return\nstop\n\nsub_0: assembly {\n        /* \"campaign.sol\":457:2402  contract Campaign {... */\n      mstore(0x40, 0x80)\n      jumpi(tag_1, lt(calldatasize, 0x04))\n      shr(0xe0, calldataload(0x00))\n      dup1\n      0x937e09b1\n      gt\n      tag_11\n      jumpi\n      dup1\n      0x937e09b1\n      eq\n      tag_6\n      jumpi\n      dup1\n      0x9fb42b1f\n      eq\n      tag_7\n      jumpi\n      dup1\n      0xcd6990e6\n      eq\n      tag_8\n      jumpi\n      dup1\n      0xd7bb99ba\n      eq\n      tag_9\n      jumpi\n      dup1\n      0xd7d1bbdb\n      eq\n      tag_10\n      jumpi\n      jump(tag_1)\n    tag_11:\n      dup1\n      0x03441006\n      eq\n      tag_2\n      jumpi\n      dup1\n      0x481c6a75\n      eq\n      tag_3\n      jumpi\n      dup1\n      0x81d12c58\n      eq\n      tag_4\n      jumpi\n      dup1\n      0x82fde093\n      eq\n      tag_5\n      jumpi\n    tag_1:\n      0x00\n      dup1\n      revert\n        /* \"campaign.sol\":2072:2399  function finalizeRequest(uint256 _index) public restricted {... */\n    tag_2:\n      callvalue\n      dup1\n      iszero\n      tag_12\n      jumpi\n      0x00\n      dup1\n      revert\n    tag_12:\n      pop\n      tag_13\n      0x04\n      dup1\n      calldatasize\n      sub\n      dup2\n      add\n      swap1\n      tag_14\n      swap2\n      swap1\n      tag_15\n      jump\t// in\n    tag_14:\n      tag_16\n      jump\t// in\n    tag_13:\n      stop\n        /* \"campaign.sol\":482:504  address public manager */\n    tag_3:\n      callvalue\n      dup1\n      iszero\n      tag_17\n      jumpi\n      0x00\n      dup1\n      revert\n    tag_17:\n      pop\n      tag_18\n      tag_19\n      jump\t// in\n    tag_18:\n      mload(0x40)\n      tag_20\n      swap2\n      swap1\n      tag_21\n      jump\t// in\n    tag_20:\n      mload(0x40)\n      dup1\n      swap2\n      sub\n      swap1\n      return\n        /* \"campaign.sol\":552:595  mapping(uint256 => Request) public requests */\n    tag_4:\n      callvalue\n      dup1\n      iszero\n      tag_22\n      jumpi\n      0x00\n      dup1\n      revert\n    tag_22:\n      pop\n      tag_23\n      0x04\n      dup1\n      calldatasize\n      sub\n      dup2\n      add\n      swap1\n      tag_24\n      swap2\n      swap1\n      tag_15\n      jump\t// in\n    tag_24:\n      tag_25\n      jump\t// in\n    tag_23:\n      mload(0x40)\n      tag_26\n      swap6\n      swap5\n      swap4\n      swap3\n      swap2\n      swap1\n      tag_27\n      jump\t// in\n    tag_26:\n      mload(0x40)\n      dup1\n      swap2\n      sub\n      swap1\n      return\n        /* \"campaign.sol\":676:709  uint256 public approversCount = 0 */\n    tag_5:\n      callvalue\n      dup1\n      iszero\n      tag_28\n      jumpi\n      0x00\n      dup1\n      revert\n    tag_28:\n      pop\n      tag_29\n      tag_30\n      jump\t// in\n    tag_29:\n      mload(0x40)\n      tag_31\n      swap2\n      swap1\n      tag_32\n      jump\t// in\n    tag_31:\n      mload(0x40)\n      dup1\n      swap2\n      sub\n      swap1\n      return\n        /* \"campaign.sol\":511:545  uint256 public minimumContribution */\n    tag_6:\n      callvalue\n      dup1\n      iszero\n      tag_33\n      jumpi\n      0x00\n      dup1\n      revert\n    tag_33:\n      pop\n      tag_34\n      tag_35\n      jump\t// in\n    tag_34:\n      mload(0x40)\n      tag_36\n      swap2\n      swap1\n      tag_32\n      jump\t// in\n    tag_36:\n      mload(0x40)\n      dup1\n      swap2\n      sub\n      swap1\n      return\n        /* \"campaign.sol\":643:669  uint256 public numRequests */\n    tag_7:\n      callvalue\n      dup1\n      iszero\n      tag_37\n      jumpi\n      0x00\n      dup1\n      revert\n    tag_37:\n      pop\n      tag_38\n      tag_39\n      jump\t// in\n    tag_38:\n      mload(0x40)\n      tag_40\n      swap2\n      swap1\n      tag_32\n      jump\t// in\n    tag_40:\n      mload(0x40)\n      dup1\n      swap2\n      sub\n      swap1\n      return\n        /* \"campaign.sol\":1327:1766  function request(... */\n    tag_8:\n      callvalue\n      dup1\n      iszero\n      tag_41\n      jumpi\n      0x00\n      dup1\n      revert\n    tag_41:\n      pop\n      tag_42\n      0x04\n      dup1\n      calldatasize\n      sub\n      dup2\n      add\n      swap1\n      tag_43\n      swap2\n      swap1\n      tag_44\n      jump\t// in\n    tag_43:\n      tag_45\n      jump\t// in\n    tag_42:\n      stop\n        /* \"campaign.sol\":1157:1319  function contribute() public payable {... */\n    tag_9:\n      tag_46\n      tag_47\n      jump\t// in\n    tag_46:\n      stop\n        /* \"campaign.sol\":1774:2064  function approveRequest(uint256 _index) public {... */\n    tag_10:\n      callvalue\n      dup1\n      iszero\n      tag_48\n      jumpi\n      0x00\n      dup1\n      revert\n    tag_48:\n      pop\n      tag_49\n      0x04\n      dup1\n      calldatasize\n      sub\n      dup2\n      add\n      swap1\n      tag_50\n      swap2\n      swap1\n      tag_15\n      jump\t// in\n    tag_50:\n      tag_51\n      jump\t// in\n    tag_49:\n      stop\n        /* \"campaign.sol\":2072:2399  function finalizeRequest(uint256 _index) public restricted {... */\n    tag_16:\n        /* \"campaign.sol\":1121:1128  manager */\n      0x00\n      dup1\n      sload\n      swap1\n      0x0100\n      exp\n      swap1\n      div\n      0xffffffffffffffffffffffffffffffffffffffff\n      and\n        /* \"campaign.sol\":1107:1128  msg.sender == manager */\n      0xffffffffffffffffffffffffffffffffffffffff\n      and\n        /* \"campaign.sol\":1107:1117  msg.sender */\n      caller\n        /* \"campaign.sol\":1107:1128  msg.sender == manager */\n      0xffffffffffffffffffffffffffffffffffffffff\n      and\n      eq\n        /* \"campaign.sol\":1099:1129  require(msg.sender == manager) */\n      tag_53\n      jumpi\n      0x00\n      dup1\n      revert\n    tag_53:\n        /* \"campaign.sol\":2142:2168  Request storage requestObj */\n      0x00\n        /* \"campaign.sol\":2171:2179  requests */\n      0x02\n        /* \"campaign.sol\":2171:2187  requests[_index] */\n      0x00\n        /* \"campaign.sol\":2180:2186  _index */\n      dup4\n        /* \"campaign.sol\":2171:2187  requests[_index] */\n      dup2\n      mstore\n      0x20\n      add\n      swap1\n      dup2\n      mstore\n      0x20\n      add\n      0x00\n      keccak256\n        /* \"campaign.sol\":2142:2187  Request storage requestObj = requests[_index] */\n      swap1\n      pop\n        /* \"campaign.sol\":2251:2252  2 */\n      0x02\n        /* \"campaign.sol\":2234:2248  approversCount */\n      sload(0x05)\n        /* \"campaign.sol\":2234:2252  approversCount / 2 */\n      tag_55\n      swap2\n      swap1\n      tag_56\n      jump\t// in\n    tag_55:\n        /* \"campaign.sol\":2206:2216  requestObj */\n      dup2\n        /* \"campaign.sol\":2206:2230  requestObj.approvalCount */\n      0x04\n      add\n      sload\n        /* \"campaign.sol\":2206:2253  requestObj.approvalCount > (approversCount / 2) */\n      gt\n        /* \"campaign.sol\":2198:2254  require(requestObj.approvalCount > (approversCount / 2)) */\n      tag_57\n      jumpi\n      0x00\n      dup1\n      revert\n    tag_57:\n        /* \"campaign.sol\":2274:2284  requestObj */\n      dup1\n        /* \"campaign.sol\":2274:2293  requestObj.complete */\n      0x03\n      add\n      0x00\n      swap1\n      sload\n      swap1\n      0x0100\n      exp\n      swap1\n      div\n      0xff\n      and\n        /* \"campaign.sol\":2273:2293  !requestObj.complete */\n      iszero\n        /* \"campaign.sol\":2265:2294  require(!requestObj.complete) */\n      tag_58\n      jumpi\n      0x00\n      dup1\n      revert\n    tag_58:\n        /* \"campaign.sol\":2307:2317  requestObj */\n      dup1\n        /* \"campaign.sol\":2307:2327  requestObj.recipient */\n      0x01\n      add\n      0x00\n      swap1\n      sload\n      swap1\n      0x0100\n      exp\n      swap1\n      div\n      0xffffffffffffffffffffffffffffffffffffffff\n      and\n        /* \"campaign.sol\":2307:2336  requestObj.recipient.transfer */\n      0xffffffffffffffffffffffffffffffffffffffff\n      and\n        /* \"campaign.sol\":2307:2354  requestObj.recipient.transfer(requestObj.value) */\n      0x08fc\n        /* \"campaign.sol\":2337:2347  requestObj */\n      dup3\n        /* \"campaign.sol\":2337:2353  requestObj.value */\n      0x02\n      add\n      sload\n        /* \"campaign.sol\":2307:2354  requestObj.recipient.transfer(requestObj.value) */\n      swap1\n      dup2\n      iszero\n      mul\n      swap1\n      mload(0x40)\n      0x00\n      mload(0x40)\n      dup1\n      dup4\n      sub\n      dup2\n      dup6\n      dup9\n      dup9\n      call\n      swap4\n      pop\n      pop\n      pop\n      pop\n      iszero\n      dup1\n      iszero\n      tag_60\n      jumpi\n      returndatasize\n      0x00\n      dup1\n      returndatacopy\n      revert(0x00, returndatasize)\n    tag_60:\n      pop\n        /* \"campaign.sol\":2387:2391  true */\n      0x01\n        /* \"campaign.sol\":2365:2375  requestObj */\n      dup2\n        /* \"campaign.sol\":2365:2384  requestObj.complete */\n      0x03\n      add\n      0x00\n        /* \"campaign.sol\":2365:2391  requestObj.complete = true */\n      0x0100\n      exp\n      dup2\n      sload\n      dup2\n      0xff\n      mul\n      not\n      and\n      swap1\n      dup4\n      iszero\n      iszero\n      mul\n      or\n      swap1\n      sstore\n      pop\n        /* \"campaign.sol\":2131:2399  {... */\n      pop\n        /* \"campaign.sol\":2072:2399  function finalizeRequest(uint256 _index) public restricted {... */\n      pop\n      jump\t// out\n        /* \"campaign.sol\":482:504  address public manager */\n    tag_19:\n      0x00\n      dup1\n      sload\n      swap1\n      0x0100\n      exp\n      swap1\n      div\n      0xffffffffffffffffffffffffffffffffffffffff\n      and\n      dup2\n      jump\t// out\n        /* \"campaign.sol\":552:595  mapping(uint256 => Request) public requests */\n    tag_25:\n      mstore(0x20, 0x02)\n      dup1\n      0x00\n      mstore\n      keccak256(0x00, 0x40)\n      0x00\n      swap2\n      pop\n      swap1\n      pop\n      dup1\n      0x00\n      add\n      dup1\n      sload\n      tag_61\n      swap1\n      tag_62\n      jump\t// in\n    tag_61:\n      dup1\n      0x1f\n      add\n      0x20\n      dup1\n      swap2\n      div\n      mul\n      0x20\n      add\n      mload(0x40)\n      swap1\n      dup2\n      add\n      0x40\n      mstore\n      dup1\n      swap3\n      swap2\n      swap1\n      dup2\n      dup2\n      mstore\n      0x20\n      add\n      dup3\n      dup1\n      sload\n      tag_63\n      swap1\n      tag_62\n      jump\t// in\n    tag_63:\n      dup1\n      iszero\n      tag_64\n      jumpi\n      dup1\n      0x1f\n      lt\n      tag_65\n      jumpi\n      0x0100\n      dup1\n      dup4\n      sload\n      div\n      mul\n      dup4\n      mstore\n      swap2\n      0x20\n      add\n      swap2\n      jump(tag_64)\n    tag_65:\n      dup3\n      add\n      swap2\n      swap1\n      0x00\n      mstore\n      keccak256(0x00, 0x20)\n      swap1\n    tag_66:\n      dup2\n      sload\n      dup2\n      mstore\n      swap1\n      0x01\n      add\n      swap1\n      0x20\n      add\n      dup1\n      dup4\n      gt\n      tag_66\n      jumpi\n      dup3\n      swap1\n      sub\n      0x1f\n      and\n      dup3\n      add\n      swap2\n    tag_64:\n      pop\n      pop\n      pop\n      pop\n      pop\n      swap1\n      dup1\n      0x01\n      add\n      0x00\n      swap1\n      sload\n      swap1\n      0x0100\n      exp\n      swap1\n      div\n      0xffffffffffffffffffffffffffffffffffffffff\n      and\n      swap1\n      dup1\n      0x02\n      add\n      sload\n      swap1\n      dup1\n      0x03\n      add\n      0x00\n      swap1\n      sload\n      swap1\n      0x0100\n      exp\n      swap1\n      div\n      0xff\n      and\n      swap1\n      dup1\n      0x04\n      add\n      sload\n      swap1\n      pop\n      dup6\n      jump\t// out\n        /* \"campaign.sol\":676:709  uint256 public approversCount = 0 */\n    tag_30:\n      sload(0x05)\n      dup2\n      jump\t// out\n        /* \"campaign.sol\":511:545  uint256 public minimumContribution */\n    tag_35:\n      sload(0x01)\n      dup2\n      jump\t// out\n        /* \"campaign.sol\":643:669  uint256 public numRequests */\n    tag_39:\n      sload(0x04)\n      dup2\n      jump\t// out\n        /* \"campaign.sol\":1327:1766  function request(... */\n    tag_45:\n        /* \"campaign.sol\":1121:1128  manager */\n      0x00\n      dup1\n      sload\n      swap1\n      0x0100\n      exp\n      swap1\n      div\n      0xffffffffffffffffffffffffffffffffffffffff\n      and\n        /* \"campaign.sol\":1107:1128  msg.sender == manager */\n      0xffffffffffffffffffffffffffffffffffffffff\n      and\n        /* \"campaign.sol\":1107:1117  msg.sender */\n      caller\n        /* \"campaign.sol\":1107:1128  msg.sender == manager */\n      0xffffffffffffffffffffffffffffffffffffffff\n      and\n      eq\n        /* \"campaign.sol\":1099:1129  require(msg.sender == manager) */\n      tag_68\n      jumpi\n      0x00\n      dup1\n      revert\n    tag_68:\n        /* \"campaign.sol\":1479:1505  Request storage newRequest */\n      0x00\n        /* \"campaign.sol\":1508:1516  requests */\n      0x02\n        /* \"campaign.sol\":1508:1529  requests[numRequests] */\n      0x00\n        /* \"campaign.sol\":1517:1528  numRequests */\n      sload(0x04)\n        /* \"campaign.sol\":1508:1529  requests[numRequests] */\n      dup2\n      mstore\n      0x20\n      add\n      swap1\n      dup2\n      mstore\n      0x20\n      add\n      0x00\n      keccak256\n        /* \"campaign.sol\":1479:1529  Request storage newRequest = requests[numRequests] */\n      swap1\n      pop\n        /* \"campaign.sol\":1540:1551  numRequests */\n      0x04\n      0x00\n        /* \"campaign.sol\":1540:1553  numRequests++ */\n      dup2\n      sload\n      dup1\n      swap3\n      swap2\n      swap1\n      tag_70\n      swap1\n      tag_71\n      jump\t// in\n    tag_70:\n      swap2\n      swap1\n      pop\n      sstore\n      pop\n        /* \"campaign.sol\":1589:1601  _description */\n      dup4\n        /* \"campaign.sol\":1564:1574  newRequest */\n      dup2\n        /* \"campaign.sol\":1564:1586  newRequest.description */\n      0x00\n      add\n        /* \"campaign.sol\":1564:1601  newRequest.description = _description */\n      swap1\n      dup1\n      mload\n      swap1\n      0x20\n      add\n      swap1\n      tag_72\n      swap3\n      swap2\n      swap1\n      tag_73\n      jump\t// in\n    tag_72:\n      pop\n        /* \"campaign.sol\":1635:1645  _recipient */\n      dup2\n        /* \"campaign.sol\":1612:1622  newRequest */\n      dup2\n        /* \"campaign.sol\":1612:1632  newRequest.recipient */\n      0x01\n      add\n      0x00\n        /* \"campaign.sol\":1612:1645  newRequest.recipient = _recipient */\n      0x0100\n      exp\n      dup2\n      sload\n      dup2\n      0xffffffffffffffffffffffffffffffffffffffff\n      mul\n      not\n      and\n      swap1\n      dup4\n      0xffffffffffffffffffffffffffffffffffffffff\n      and\n      mul\n      or\n      swap1\n      sstore\n      pop\n        /* \"campaign.sol\":1675:1681  _value */\n      dup3\n        /* \"campaign.sol\":1656:1666  newRequest */\n      dup2\n        /* \"campaign.sol\":1656:1672  newRequest.value */\n      0x02\n      add\n        /* \"campaign.sol\":1656:1681  newRequest.value = _value */\n      dup2\n      swap1\n      sstore\n      pop\n        /* \"campaign.sol\":1714:1719  false */\n      0x00\n        /* \"campaign.sol\":1692:1702  newRequest */\n      dup2\n        /* \"campaign.sol\":1692:1711  newRequest.complete */\n      0x03\n      add\n      0x00\n        /* \"campaign.sol\":1692:1719  newRequest.complete = false */\n      0x0100\n      exp\n      dup2\n      sload\n      dup2\n      0xff\n      mul\n      not\n      and\n      swap1\n      dup4\n      iszero\n      iszero\n      mul\n      or\n      swap1\n      sstore\n      pop\n        /* \"campaign.sol\":1757:1758  0 */\n      0x00\n        /* \"campaign.sol\":1730:1740  newRequest */\n      dup2\n        /* \"campaign.sol\":1730:1754  newRequest.approvalCount */\n      0x04\n      add\n        /* \"campaign.sol\":1730:1758  newRequest.approvalCount = 0 */\n      dup2\n      swap1\n      sstore\n      pop\n        /* \"campaign.sol\":1468:1766  {... */\n      pop\n        /* \"campaign.sol\":1327:1766  function request(... */\n      pop\n      pop\n      pop\n      jump\t// out\n        /* \"campaign.sol\":1157:1319  function contribute() public payable {... */\n    tag_47:\n        /* \"campaign.sol\":1225:1244  minimumContribution */\n      sload(0x01)\n        /* \"campaign.sol\":1213:1222  msg.value */\n      callvalue\n        /* \"campaign.sol\":1213:1244  msg.value > minimumContribution */\n      gt\n        /* \"campaign.sol\":1205:1245  require(msg.value > minimumContribution) */\n      tag_75\n      jumpi\n      0x00\n      dup1\n      revert\n    tag_75:\n        /* \"campaign.sol\":1280:1284  true */\n      0x01\n        /* \"campaign.sol\":1256:1265  approvers */\n      0x03\n        /* \"campaign.sol\":1256:1277  approvers[msg.sender] */\n      0x00\n        /* \"campaign.sol\":1266:1276  msg.sender */\n      caller\n        /* \"campaign.sol\":1256:1277  approvers[msg.sender] */\n      0xffffffffffffffffffffffffffffffffffffffff\n      and\n      0xffffffffffffffffffffffffffffffffffffffff\n      and\n      dup2\n      mstore\n      0x20\n      add\n      swap1\n      dup2\n      mstore\n      0x20\n      add\n      0x00\n      keccak256\n      0x00\n        /* \"campaign.sol\":1256:1284  approvers[msg.sender] = true */\n      0x0100\n      exp\n      dup2\n      sload\n      dup2\n      0xff\n      mul\n      not\n      and\n      swap1\n      dup4\n      iszero\n      iszero\n      mul\n      or\n      swap1\n      sstore\n      pop\n        /* \"campaign.sol\":1295:1309  approversCount */\n      0x05\n      0x00\n        /* \"campaign.sol\":1295:1311  approversCount++ */\n      dup2\n      sload\n      dup1\n      swap3\n      swap2\n      swap1\n      tag_76\n      swap1\n      tag_71\n      jump\t// in\n    tag_76:\n      swap2\n      swap1\n      pop\n      sstore\n      pop\n        /* \"campaign.sol\":1157:1319  function contribute() public payable {... */\n      jump\t// out\n        /* \"campaign.sol\":1774:2064  function approveRequest(uint256 _index) public {... */\n    tag_51:\n        /* \"campaign.sol\":1832:1858  Request storage requestObj */\n      0x00\n        /* \"campaign.sol\":1861:1869  requests */\n      0x02\n        /* \"campaign.sol\":1861:1877  requests[_index] */\n      0x00\n        /* \"campaign.sol\":1870:1876  _index */\n      dup4\n        /* \"campaign.sol\":1861:1877  requests[_index] */\n      dup2\n      mstore\n      0x20\n      add\n      swap1\n      dup2\n      mstore\n      0x20\n      add\n      0x00\n      keccak256\n        /* \"campaign.sol\":1832:1877  Request storage requestObj = requests[_index] */\n      swap1\n      pop\n        /* \"campaign.sol\":1898:1907  approvers */\n      0x03\n        /* \"campaign.sol\":1898:1919  approvers[msg.sender] */\n      0x00\n        /* \"campaign.sol\":1908:1918  msg.sender */\n      caller\n        /* \"campaign.sol\":1898:1919  approvers[msg.sender] */\n      0xffffffffffffffffffffffffffffffffffffffff\n      and\n      0xffffffffffffffffffffffffffffffffffffffff\n      and\n      dup2\n      mstore\n      0x20\n      add\n      swap1\n      dup2\n      mstore\n      0x20\n      add\n      0x00\n      keccak256\n      0x00\n      swap1\n      sload\n      swap1\n      0x0100\n      exp\n      swap1\n      div\n      0xff\n      and\n        /* \"campaign.sol\":1890:1920  require(approvers[msg.sender]) */\n      tag_78\n      jumpi\n      0x00\n      dup1\n      revert\n    tag_78:\n        /* \"campaign.sol\":1940:1950  requestObj */\n      dup1\n        /* \"campaign.sol\":1940:1957  requestObj.voters */\n      0x05\n      add\n        /* \"campaign.sol\":1940:1969  requestObj.voters[msg.sender] */\n      0x00\n        /* \"campaign.sol\":1958:1968  msg.sender */\n      caller\n        /* \"campaign.sol\":1940:1969  requestObj.voters[msg.sender] */\n      0xffffffffffffffffffffffffffffffffffffffff\n      and\n      0xffffffffffffffffffffffffffffffffffffffff\n      and\n      dup2\n      mstore\n      0x20\n      add\n      swap1\n      dup2\n      mstore\n      0x20\n      add\n      0x00\n      keccak256\n      0x00\n      swap1\n      sload\n      swap1\n      0x0100\n      exp\n      swap1\n      div\n      0xff\n      and\n        /* \"campaign.sol\":1939:1969  !requestObj.voters[msg.sender] */\n      iszero\n        /* \"campaign.sol\":1931:1970  require(!requestObj.voters[msg.sender]) */\n      tag_79\n      jumpi\n      0x00\n      dup1\n      revert\n    tag_79:\n        /* \"campaign.sol\":2015:2019  true */\n      0x01\n        /* \"campaign.sol\":1983:1993  requestObj */\n      dup2\n        /* \"campaign.sol\":1983:2000  requestObj.voters */\n      0x05\n      add\n        /* \"campaign.sol\":1983:2012  requestObj.voters[msg.sender] */\n      0x00\n        /* \"campaign.sol\":2001:2011  msg.sender */\n      caller\n        /* \"campaign.sol\":1983:2012  requestObj.voters[msg.sender] */\n      0xffffffffffffffffffffffffffffffffffffffff\n      and\n      0xffffffffffffffffffffffffffffffffffffffff\n      and\n      dup2\n      mstore\n      0x20\n      add\n      swap1\n      dup2\n      mstore\n      0x20\n      add\n      0x00\n      keccak256\n      0x00\n        /* \"campaign.sol\":1983:2019  requestObj.voters[msg.sender] = true */\n      0x0100\n      exp\n      dup2\n      sload\n      dup2\n      0xff\n      mul\n      not\n      and\n      swap1\n      dup4\n      iszero\n      iszero\n      mul\n      or\n      swap1\n      sstore\n      pop\n        /* \"campaign.sol\":2030:2040  requestObj */\n      dup1\n        /* \"campaign.sol\":2030:2054  requestObj.approvalCount */\n      0x04\n      add\n      0x00\n        /* \"campaign.sol\":2030:2056  requestObj.approvalCount++ */\n      dup2\n      sload\n      dup1\n      swap3\n      swap2\n      swap1\n      tag_80\n      swap1\n      tag_71\n      jump\t// in\n    tag_80:\n      swap2\n      swap1\n      pop\n      sstore\n      pop\n        /* \"campaign.sol\":1821:2064  {... */\n      pop\n        /* \"campaign.sol\":1774:2064  function approveRequest(uint256 _index) public {... */\n      pop\n      jump\t// out\n    tag_73:\n      dup3\n      dup1\n      sload\n      tag_81\n      swap1\n      tag_62\n      jump\t// in\n    tag_81:\n      swap1\n      0x00\n      mstore\n      keccak256(0x00, 0x20)\n      swap1\n      0x1f\n      add\n      0x20\n      swap1\n      div\n      dup2\n      add\n      swap3\n      dup3\n      tag_83\n      jumpi\n      0x00\n      dup6\n      sstore\n      jump(tag_82)\n    tag_83:\n      dup3\n      0x1f\n      lt\n      tag_84\n      jumpi\n      dup1\n      mload\n      not(0xff)\n      and\n      dup4\n      dup1\n      add\n      or\n      dup6\n      sstore\n      jump(tag_82)\n    tag_84:\n      dup3\n      dup1\n      add\n      0x01\n      add\n      dup6\n      sstore\n      dup3\n      iszero\n      tag_82\n      jumpi\n      swap2\n      dup3\n      add\n    tag_85:\n      dup3\n      dup2\n      gt\n      iszero\n      tag_86\n      jumpi\n      dup3\n      mload\n      dup3\n      sstore\n      swap2\n      0x20\n      add\n      swap2\n      swap1\n      0x01\n      add\n      swap1\n      jump(tag_85)\n    tag_86:\n    tag_82:\n      pop\n      swap1\n      pop\n      tag_87\n      swap2\n      swap1\n      tag_88\n      jump\t// in\n    tag_87:\n      pop\n      swap1\n      jump\t// out\n    tag_88:\n    tag_89:\n      dup1\n      dup3\n      gt\n      iszero\n      tag_90\n      jumpi\n      0x00\n      dup2\n      0x00\n      swap1\n      sstore\n      pop\n      0x01\n      add\n      jump(tag_89)\n    tag_90:\n      pop\n      swap1\n      jump\t// out\n        /* \"#utility.yul\":7:82   */\n    tag_91:\n        /* \"#utility.yul\":40:46   */\n      0x00\n        /* \"#utility.yul\":73:75   */\n      0x40\n        /* \"#utility.yul\":67:76   */\n      mload\n        /* \"#utility.yul\":57:76   */\n      swap1\n      pop\n        /* \"#utility.yul\":7:82   */\n      swap1\n      jump\t// out\n        /* \"#utility.yul\":88:205   */\n    tag_92:\n        /* \"#utility.yul\":197:198   */\n      0x00\n        /* \"#utility.yul\":194:195   */\n      dup1\n        /* \"#utility.yul\":187:199   */\n      revert\n        /* \"#utility.yul\":211:328   */\n    tag_93:\n        /* \"#utility.yul\":320:321   */\n      0x00\n        /* \"#utility.yul\":317:318   */\n      dup1\n        /* \"#utility.yul\":310:322   */\n      revert\n        /* \"#utility.yul\":334:411   */\n    tag_94:\n        /* \"#utility.yul\":371:378   */\n      0x00\n        /* \"#utility.yul\":400:405   */\n      dup2\n        /* \"#utility.yul\":389:405   */\n      swap1\n      pop\n        /* \"#utility.yul\":334:411   */\n      swap2\n      swap1\n      pop\n      jump\t// out\n        /* \"#utility.yul\":417:539   */\n    tag_95:\n        /* \"#utility.yul\":490:514   */\n      tag_130\n        /* \"#utility.yul\":508:513   */\n      dup2\n        /* \"#utility.yul\":490:514   */\n      tag_94\n      jump\t// in\n    tag_130:\n        /* \"#utility.yul\":483:488   */\n      dup2\n        /* \"#utility.yul\":480:515   */\n      eq\n        /* \"#utility.yul\":470:533   */\n      tag_131\n      jumpi\n        /* \"#utility.yul\":529:530   */\n      0x00\n        /* \"#utility.yul\":526:527   */\n      dup1\n        /* \"#utility.yul\":519:531   */\n      revert\n        /* \"#utility.yul\":470:533   */\n    tag_131:\n        /* \"#utility.yul\":417:539   */\n      pop\n      jump\t// out\n        /* \"#utility.yul\":545:684   */\n    tag_96:\n        /* \"#utility.yul\":591:596   */\n      0x00\n        /* \"#utility.yul\":629:635   */\n      dup2\n        /* \"#utility.yul\":616:636   */\n      calldataload\n        /* \"#utility.yul\":607:636   */\n      swap1\n      pop\n        /* \"#utility.yul\":645:678   */\n      tag_133\n        /* \"#utility.yul\":672:677   */\n      dup2\n        /* \"#utility.yul\":645:678   */\n      tag_95\n      jump\t// in\n    tag_133:\n        /* \"#utility.yul\":545:684   */\n      swap3\n      swap2\n      pop\n      pop\n      jump\t// out\n        /* \"#utility.yul\":690:1019   */\n    tag_15:\n        /* \"#utility.yul\":749:755   */\n      0x00\n        /* \"#utility.yul\":798:800   */\n      0x20\n        /* \"#utility.yul\":786:795   */\n      dup3\n        /* \"#utility.yul\":777:784   */\n      dup5\n        /* \"#utility.yul\":773:796   */\n      sub\n        /* \"#utility.yul\":769:801   */\n      slt\n        /* \"#utility.yul\":766:885   */\n      iszero\n      tag_135\n      jumpi\n        /* \"#utility.yul\":804:883   */\n      tag_136\n      tag_92\n      jump\t// in\n    tag_136:\n        /* \"#utility.yul\":766:885   */\n    tag_135:\n        /* \"#utility.yul\":924:925   */\n      0x00\n        /* \"#utility.yul\":949:1002   */\n      tag_137\n        /* \"#utility.yul\":994:1001   */\n      dup5\n        /* \"#utility.yul\":985:991   */\n      dup3\n        /* \"#utility.yul\":974:983   */\n      dup6\n        /* \"#utility.yul\":970:992   */\n      add\n        /* \"#utility.yul\":949:1002   */\n      tag_96\n      jump\t// in\n    tag_137:\n        /* \"#utility.yul\":939:1002   */\n      swap2\n      pop\n        /* \"#utility.yul\":895:1012   */\n      pop\n        /* \"#utility.yul\":690:1019   */\n      swap3\n      swap2\n      pop\n      pop\n      jump\t// out\n        /* \"#utility.yul\":1025:1151   */\n    tag_97:\n        /* \"#utility.yul\":1062:1069   */\n      0x00\n        /* \"#utility.yul\":1102:1144   */\n      0xffffffffffffffffffffffffffffffffffffffff\n        /* \"#utility.yul\":1095:1100   */\n      dup3\n        /* \"#utility.yul\":1091:1145   */\n      and\n        /* \"#utility.yul\":1080:1145   */\n      swap1\n      pop\n        /* \"#utility.yul\":1025:1151   */\n      swap2\n      swap1\n      pop\n      jump\t// out\n        /* \"#utility.yul\":1157:1253   */\n    tag_98:\n        /* \"#utility.yul\":1194:1201   */\n      0x00\n        /* \"#utility.yul\":1223:1247   */\n      tag_140\n        /* \"#utility.yul\":1241:1246   */\n      dup3\n        /* \"#utility.yul\":1223:1247   */\n      tag_97\n      jump\t// in\n    tag_140:\n        /* \"#utility.yul\":1212:1247   */\n      swap1\n      pop\n        /* \"#utility.yul\":1157:1253   */\n      swap2\n      swap1\n      pop\n      jump\t// out\n        /* \"#utility.yul\":1259:1377   */\n    tag_99:\n        /* \"#utility.yul\":1346:1370   */\n      tag_142\n        /* \"#utility.yul\":1364:1369   */\n      dup2\n        /* \"#utility.yul\":1346:1370   */\n      tag_98\n      jump\t// in\n    tag_142:\n        /* \"#utility.yul\":1341:1344   */\n      dup3\n        /* \"#utility.yul\":1334:1371   */\n      mstore\n        /* \"#utility.yul\":1259:1377   */\n      pop\n      pop\n      jump\t// out\n        /* \"#utility.yul\":1383:1605   */\n    tag_21:\n        /* \"#utility.yul\":1476:1480   */\n      0x00\n        /* \"#utility.yul\":1514:1516   */\n      0x20\n        /* \"#utility.yul\":1503:1512   */\n      dup3\n        /* \"#utility.yul\":1499:1517   */\n      add\n        /* \"#utility.yul\":1491:1517   */\n      swap1\n      pop\n        /* \"#utility.yul\":1527:1598   */\n      tag_144\n        /* \"#utility.yul\":1595:1596   */\n      0x00\n        /* \"#utility.yul\":1584:1593   */\n      dup4\n        /* \"#utility.yul\":1580:1597   */\n      add\n        /* \"#utility.yul\":1571:1577   */\n      dup5\n        /* \"#utility.yul\":1527:1598   */\n      tag_99\n      jump\t// in\n    tag_144:\n        /* \"#utility.yul\":1383:1605   */\n      swap3\n      swap2\n      pop\n      pop\n      jump\t// out\n        /* \"#utility.yul\":1611:1710   */\n    tag_100:\n        /* \"#utility.yul\":1663:1669   */\n      0x00\n        /* \"#utility.yul\":1697:1702   */\n      dup2\n        /* \"#utility.yul\":1691:1703   */\n      mload\n        /* \"#utility.yul\":1681:1703   */\n      swap1\n      pop\n        /* \"#utility.yul\":1611:1710   */\n      swap2\n      swap1\n      pop\n      jump\t// out\n        /* \"#utility.yul\":1716:1885   */\n    tag_101:\n        /* \"#utility.yul\":1800:1811   */\n      0x00\n        /* \"#utility.yul\":1834:1840   */\n      dup3\n        /* \"#utility.yul\":1829:1832   */\n      dup3\n        /* \"#utility.yul\":1822:1841   */\n      mstore\n        /* \"#utility.yul\":1874:1878   */\n      0x20\n        /* \"#utility.yul\":1869:1872   */\n      dup3\n        /* \"#utility.yul\":1865:1879   */\n      add\n        /* \"#utility.yul\":1850:1879   */\n      swap1\n      pop\n        /* \"#utility.yul\":1716:1885   */\n      swap3\n      swap2\n      pop\n      pop\n      jump\t// out\n        /* \"#utility.yul\":1891:2198   */\n    tag_102:\n        /* \"#utility.yul\":1959:1960   */\n      0x00\n        /* \"#utility.yul\":1969:2082   */\n    tag_148:\n        /* \"#utility.yul\":1983:1989   */\n      dup4\n        /* \"#utility.yul\":1980:1981   */\n      dup2\n        /* \"#utility.yul\":1977:1990   */\n      lt\n        /* \"#utility.yul\":1969:2082   */\n      iszero\n      tag_150\n      jumpi\n        /* \"#utility.yul\":2068:2069   */\n      dup1\n        /* \"#utility.yul\":2063:2066   */\n      dup3\n        /* \"#utility.yul\":2059:2070   */\n      add\n        /* \"#utility.yul\":2053:2071   */\n      mload\n        /* \"#utility.yul\":2049:2050   */\n      dup2\n        /* \"#utility.yul\":2044:2047   */\n      dup5\n        /* \"#utility.yul\":2040:2051   */\n      add\n        /* \"#utility.yul\":2033:2072   */\n      mstore\n        /* \"#utility.yul\":2005:2007   */\n      0x20\n        /* \"#utility.yul\":2002:2003   */\n      dup2\n        /* \"#utility.yul\":1998:2008   */\n      add\n        /* \"#utility.yul\":1993:2008   */\n      swap1\n      pop\n        /* \"#utility.yul\":1969:2082   */\n      jump(tag_148)\n    tag_150:\n        /* \"#utility.yul\":2100:2106   */\n      dup4\n        /* \"#utility.yul\":2097:2098   */\n      dup2\n        /* \"#utility.yul\":2094:2107   */\n      gt\n        /* \"#utility.yul\":2091:2192   */\n      iszero\n      tag_151\n      jumpi\n        /* \"#utility.yul\":2180:2181   */\n      0x00\n        /* \"#utility.yul\":2171:2177   */\n      dup5\n        /* \"#utility.yul\":2166:2169   */\n      dup5\n        /* \"#utility.yul\":2162:2178   */\n      add\n        /* \"#utility.yul\":2155:2182   */\n      mstore\n        /* \"#utility.yul\":2091:2192   */\n    tag_151:\n        /* \"#utility.yul\":1940:2198   */\n      pop\n        /* \"#utility.yul\":1891:2198   */\n      pop\n      pop\n      pop\n      jump\t// out\n        /* \"#utility.yul\":2204:2306   */\n    tag_103:\n        /* \"#utility.yul\":2245:2251   */\n      0x00\n        /* \"#utility.yul\":2296:2298   */\n      0x1f\n        /* \"#utility.yul\":2292:2299   */\n      not\n        /* \"#utility.yul\":2287:2289   */\n      0x1f\n        /* \"#utility.yul\":2280:2285   */\n      dup4\n        /* \"#utility.yul\":2276:2290   */\n      add\n        /* \"#utility.yul\":2272:2300   */\n      and\n        /* \"#utility.yul\":2262:2300   */\n      swap1\n      pop\n        /* \"#utility.yul\":2204:2306   */\n      swap2\n      swap1\n      pop\n      jump\t// out\n        /* \"#utility.yul\":2312:2676   */\n    tag_104:\n        /* \"#utility.yul\":2400:2403   */\n      0x00\n        /* \"#utility.yul\":2428:2467   */\n      tag_154\n        /* \"#utility.yul\":2461:2466   */\n      dup3\n        /* \"#utility.yul\":2428:2467   */\n      tag_100\n      jump\t// in\n    tag_154:\n        /* \"#utility.yul\":2483:2554   */\n      tag_155\n        /* \"#utility.yul\":2547:2553   */\n      dup2\n        /* \"#utility.yul\":2542:2545   */\n      dup6\n        /* \"#utility.yul\":2483:2554   */\n      tag_101\n      jump\t// in\n    tag_155:\n        /* \"#utility.yul\":2476:2554   */\n      swap4\n      pop\n        /* \"#utility.yul\":2563:2615   */\n      tag_156\n        /* \"#utility.yul\":2608:2614   */\n      dup2\n        /* \"#utility.yul\":2603:2606   */\n      dup6\n        /* \"#utility.yul\":2596:2600   */\n      0x20\n        /* \"#utility.yul\":2589:2594   */\n      dup7\n        /* \"#utility.yul\":2585:2601   */\n      add\n        /* \"#utility.yul\":2563:2615   */\n      tag_102\n      jump\t// in\n    tag_156:\n        /* \"#utility.yul\":2640:2669   */\n      tag_157\n        /* \"#utility.yul\":2662:2668   */\n      dup2\n        /* \"#utility.yul\":2640:2669   */\n      tag_103\n      jump\t// in\n    tag_157:\n        /* \"#utility.yul\":2635:2638   */\n      dup5\n        /* \"#utility.yul\":2631:2670   */\n      add\n        /* \"#utility.yul\":2624:2670   */\n      swap2\n      pop\n        /* \"#utility.yul\":2404:2676   */\n      pop\n        /* \"#utility.yul\":2312:2676   */\n      swap3\n      swap2\n      pop\n      pop\n      jump\t// out\n        /* \"#utility.yul\":2682:2786   */\n    tag_105:\n        /* \"#utility.yul\":2727:2734   */\n      0x00\n        /* \"#utility.yul\":2756:2780   */\n      tag_159\n        /* \"#utility.yul\":2774:2779   */\n      dup3\n        /* \"#utility.yul\":2756:2780   */\n      tag_97\n      jump\t// in\n    tag_159:\n        /* \"#utility.yul\":2745:2780   */\n      swap1\n      pop\n        /* \"#utility.yul\":2682:2786   */\n      swap2\n      swap1\n      pop\n      jump\t// out\n        /* \"#utility.yul\":2792:2934   */\n    tag_106:\n        /* \"#utility.yul\":2895:2927   */\n      tag_161\n        /* \"#utility.yul\":2921:2926   */\n      dup2\n        /* \"#utility.yul\":2895:2927   */\n      tag_105\n      jump\t// in\n    tag_161:\n        /* \"#utility.yul\":2890:2893   */\n      dup3\n        /* \"#utility.yul\":2883:2928   */\n      mstore\n        /* \"#utility.yul\":2792:2934   */\n      pop\n      pop\n      jump\t// out\n        /* \"#utility.yul\":2940:3058   */\n    tag_107:\n        /* \"#utility.yul\":3027:3051   */\n      tag_163\n        /* \"#utility.yul\":3045:3050   */\n      dup2\n        /* \"#utility.yul\":3027:3051   */\n      tag_94\n      jump\t// in\n    tag_163:\n        /* \"#utility.yul\":3022:3025   */\n      dup3\n        /* \"#utility.yul\":3015:3052   */\n      mstore\n        /* \"#utility.yul\":2940:3058   */\n      pop\n      pop\n      jump\t// out\n        /* \"#utility.yul\":3064:3154   */\n    tag_108:\n        /* \"#utility.yul\":3098:3105   */\n      0x00\n        /* \"#utility.yul\":3141:3146   */\n      dup2\n        /* \"#utility.yul\":3134:3147   */\n      iszero\n        /* \"#utility.yul\":3127:3148   */\n      iszero\n        /* \"#utility.yul\":3116:3148   */\n      swap1\n      pop\n        /* \"#utility.yul\":3064:3154   */\n      swap2\n      swap1\n      pop\n      jump\t// out\n        /* \"#utility.yul\":3160:3269   */\n    tag_109:\n        /* \"#utility.yul\":3241:3262   */\n      tag_166\n        /* \"#utility.yul\":3256:3261   */\n      dup2\n        /* \"#utility.yul\":3241:3262   */\n      tag_108\n      jump\t// in\n    tag_166:\n        /* \"#utility.yul\":3236:3239   */\n      dup3\n        /* \"#utility.yul\":3229:3263   */\n      mstore\n        /* \"#utility.yul\":3160:3269   */\n      pop\n      pop\n      jump\t// out\n        /* \"#utility.yul\":3275:4050   */\n    tag_27:\n        /* \"#utility.yul\":3510:3514   */\n      0x00\n        /* \"#utility.yul\":3548:3551   */\n      0xa0\n        /* \"#utility.yul\":3537:3546   */\n      dup3\n        /* \"#utility.yul\":3533:3552   */\n      add\n        /* \"#utility.yul\":3525:3552   */\n      swap1\n      pop\n        /* \"#utility.yul\":3598:3607   */\n      dup2\n        /* \"#utility.yul\":3592:3596   */\n      dup2\n        /* \"#utility.yul\":3588:3608   */\n      sub\n        /* \"#utility.yul\":3584:3585   */\n      0x00\n        /* \"#utility.yul\":3573:3582   */\n      dup4\n        /* \"#utility.yul\":3569:3586   */\n      add\n        /* \"#utility.yul\":3562:3609   */\n      mstore\n        /* \"#utility.yul\":3626:3704   */\n      tag_168\n        /* \"#utility.yul\":3699:3703   */\n      dup2\n        /* \"#utility.yul\":3690:3696   */\n      dup9\n        /* \"#utility.yul\":3626:3704   */\n      tag_104\n      jump\t// in\n    tag_168:\n        /* \"#utility.yul\":3618:3704   */\n      swap1\n      pop\n        /* \"#utility.yul\":3714:3802   */\n      tag_169\n        /* \"#utility.yul\":3798:3800   */\n      0x20\n        /* \"#utility.yul\":3787:3796   */\n      dup4\n        /* \"#utility.yul\":3783:3801   */\n      add\n        /* \"#utility.yul\":3774:3780   */\n      dup8\n        /* \"#utility.yul\":3714:3802   */\n      tag_106\n      jump\t// in\n    tag_169:\n        /* \"#utility.yul\":3812:3884   */\n      tag_170\n        /* \"#utility.yul\":3880:3882   */\n      0x40\n        /* \"#utility.yul\":3869:3878   */\n      dup4\n        /* \"#utility.yul\":3865:3883   */\n      add\n        /* \"#utility.yul\":3856:3862   */\n      dup7\n        /* \"#utility.yul\":3812:3884   */\n      tag_107\n      jump\t// in\n    tag_170:\n        /* \"#utility.yul\":3894:3960   */\n      tag_171\n        /* \"#utility.yul\":3956:3958   */\n      0x60\n        /* \"#utility.yul\":3945:3954   */\n      dup4\n        /* \"#utility.yul\":3941:3959   */\n      add\n        /* \"#utility.yul\":3932:3938   */\n      dup6\n        /* \"#utility.yul\":3894:3960   */\n      tag_109\n      jump\t// in\n    tag_171:\n        /* \"#utility.yul\":3970:4043   */\n      tag_172\n        /* \"#utility.yul\":4038:4041   */\n      0x80\n        /* \"#utility.yul\":4027:4036   */\n      dup4\n        /* \"#utility.yul\":4023:4042   */\n      add\n        /* \"#utility.yul\":4014:4020   */\n      dup5\n        /* \"#utility.yul\":3970:4043   */\n      tag_107\n      jump\t// in\n    tag_172:\n        /* \"#utility.yul\":3275:4050   */\n      swap7\n      swap6\n      pop\n      pop\n      pop\n      pop\n      pop\n      pop\n      jump\t// out\n        /* \"#utility.yul\":4056:4278   */\n    tag_32:\n        /* \"#utility.yul\":4149:4153   */\n      0x00\n        /* \"#utility.yul\":4187:4189   */\n      0x20\n        /* \"#utility.yul\":4176:4185   */\n      dup3\n        /* \"#utility.yul\":4172:4190   */\n      add\n        /* \"#utility.yul\":4164:4190   */\n      swap1\n      pop\n        /* \"#utility.yul\":4200:4271   */\n      tag_174\n        /* \"#utility.yul\":4268:4269   */\n      0x00\n        /* \"#utility.yul\":4257:4266   */\n      dup4\n        /* \"#utility.yul\":4253:4270   */\n      add\n        /* \"#utility.yul\":4244:4250   */\n      dup5\n        /* \"#utility.yul\":4200:4271   */\n      tag_107\n      jump\t// in\n    tag_174:\n        /* \"#utility.yul\":4056:4278   */\n      swap3\n      swap2\n      pop\n      pop\n      jump\t// out\n        /* \"#utility.yul\":4284:4401   */\n    tag_110:\n        /* \"#utility.yul\":4393:4394   */\n      0x00\n        /* \"#utility.yul\":4390:4391   */\n      dup1\n        /* \"#utility.yul\":4383:4395   */\n      revert\n        /* \"#utility.yul\":4407:4524   */\n    tag_111:\n        /* \"#utility.yul\":4516:4517   */\n      0x00\n        /* \"#utility.yul\":4513:4514   */\n      dup1\n        /* \"#utility.yul\":4506:4518   */\n      revert\n        /* \"#utility.yul\":4530:4710   */\n    tag_112:\n        /* \"#utility.yul\":4578:4655   */\n      0x4e487b7100000000000000000000000000000000000000000000000000000000\n        /* \"#utility.yul\":4575:4576   */\n      0x00\n        /* \"#utility.yul\":4568:4656   */\n      mstore\n        /* \"#utility.yul\":4675:4679   */\n      0x41\n        /* \"#utility.yul\":4672:4673   */\n      0x04\n        /* \"#utility.yul\":4665:4680   */\n      mstore\n        /* \"#utility.yul\":4699:4703   */\n      0x24\n        /* \"#utility.yul\":4696:4697   */\n      0x00\n        /* \"#utility.yul\":4689:4704   */\n      revert\n        /* \"#utility.yul\":4716:4997   */\n    tag_113:\n        /* \"#utility.yul\":4799:4826   */\n      tag_179\n        /* \"#utility.yul\":4821:4825   */\n      dup3\n        /* \"#utility.yul\":4799:4826   */\n      tag_103\n      jump\t// in\n    tag_179:\n        /* \"#utility.yul\":4791:4797   */\n      dup2\n        /* \"#utility.yul\":4787:4827   */\n      add\n        /* \"#utility.yul\":4929:4935   */\n      dup2\n        /* \"#utility.yul\":4917:4927   */\n      dup2\n        /* \"#utility.yul\":4914:4936   */\n      lt\n        /* \"#utility.yul\":4893:4911   */\n      0xffffffffffffffff\n        /* \"#utility.yul\":4881:4891   */\n      dup3\n        /* \"#utility.yul\":4878:4912   */\n      gt\n        /* \"#utility.yul\":4875:4937   */\n      or\n        /* \"#utility.yul\":4872:4960   */\n      iszero\n      tag_180\n      jumpi\n        /* \"#utility.yul\":4940:4958   */\n      tag_181\n      tag_112\n      jump\t// in\n    tag_181:\n        /* \"#utility.yul\":4872:4960   */\n    tag_180:\n        /* \"#utility.yul\":4980:4990   */\n      dup1\n        /* \"#utility.yul\":4976:4978   */\n      0x40\n        /* \"#utility.yul\":4969:4991   */\n      mstore\n        /* \"#utility.yul\":4759:4997   */\n      pop\n        /* \"#utility.yul\":4716:4997   */\n      pop\n      pop\n      jump\t// out\n        /* \"#utility.yul\":5003:5132   */\n    tag_114:\n        /* \"#utility.yul\":5037:5043   */\n      0x00\n        /* \"#utility.yul\":5064:5084   */\n      tag_183\n      tag_91\n      jump\t// in\n    tag_183:\n        /* \"#utility.yul\":5054:5084   */\n      swap1\n      pop\n        /* \"#utility.yul\":5093:5126   */\n      tag_184\n        /* \"#utility.yul\":5121:5125   */\n      dup3\n        /* \"#utility.yul\":5113:5119   */\n      dup3\n        /* \"#utility.yul\":5093:5126   */\n      tag_113\n      jump\t// in\n    tag_184:\n        /* \"#utility.yul\":5003:5132   */\n      swap2\n      swap1\n      pop\n      jump\t// out\n        /* \"#utility.yul\":5138:5446   */\n    tag_115:\n        /* \"#utility.yul\":5200:5204   */\n      0x00\n        /* \"#utility.yul\":5290:5308   */\n      0xffffffffffffffff\n        /* \"#utility.yul\":5282:5288   */\n      dup3\n        /* \"#utility.yul\":5279:5309   */\n      gt\n        /* \"#utility.yul\":5276:5332   */\n      iszero\n      tag_186\n      jumpi\n        /* \"#utility.yul\":5312:5330   */\n      tag_187\n      tag_112\n      jump\t// in\n    tag_187:\n        /* \"#utility.yul\":5276:5332   */\n    tag_186:\n        /* \"#utility.yul\":5350:5379   */\n      tag_188\n        /* \"#utility.yul\":5372:5378   */\n      dup3\n        /* \"#utility.yul\":5350:5379   */\n      tag_103\n      jump\t// in\n    tag_188:\n        /* \"#utility.yul\":5342:5379   */\n      swap1\n      pop\n        /* \"#utility.yul\":5434:5438   */\n      0x20\n        /* \"#utility.yul\":5428:5432   */\n      dup2\n        /* \"#utility.yul\":5424:5439   */\n      add\n        /* \"#utility.yul\":5416:5439   */\n      swap1\n      pop\n        /* \"#utility.yul\":5138:5446   */\n      swap2\n      swap1\n      pop\n      jump\t// out\n        /* \"#utility.yul\":5452:5606   */\n    tag_116:\n        /* \"#utility.yul\":5536:5542   */\n      dup3\n        /* \"#utility.yul\":5531:5534   */\n      dup2\n        /* \"#utility.yul\":5526:5529   */\n      dup4\n        /* \"#utility.yul\":5513:5543   */\n      calldatacopy\n        /* \"#utility.yul\":5598:5599   */\n      0x00\n        /* \"#utility.yul\":5589:5595   */\n      dup4\n        /* \"#utility.yul\":5584:5587   */\n      dup4\n        /* \"#utility.yul\":5580:5596   */\n      add\n        /* \"#utility.yul\":5573:5600   */\n      mstore\n        /* \"#utility.yul\":5452:5606   */\n      pop\n      pop\n      pop\n      jump\t// out\n        /* \"#utility.yul\":5612:6024   */\n    tag_117:\n        /* \"#utility.yul\":5690:5695   */\n      0x00\n        /* \"#utility.yul\":5715:5781   */\n      tag_191\n        /* \"#utility.yul\":5731:5780   */\n      tag_192\n        /* \"#utility.yul\":5773:5779   */\n      dup5\n        /* \"#utility.yul\":5731:5780   */\n      tag_115\n      jump\t// in\n    tag_192:\n        /* \"#utility.yul\":5715:5781   */\n      tag_114\n      jump\t// in\n    tag_191:\n        /* \"#utility.yul\":5706:5781   */\n      swap1\n      pop\n        /* \"#utility.yul\":5804:5810   */\n      dup3\n        /* \"#utility.yul\":5797:5802   */\n      dup2\n        /* \"#utility.yul\":5790:5811   */\n      mstore\n        /* \"#utility.yul\":5842:5846   */\n      0x20\n        /* \"#utility.yul\":5835:5840   */\n      dup2\n        /* \"#utility.yul\":5831:5847   */\n      add\n        /* \"#utility.yul\":5880:5883   */\n      dup5\n        /* \"#utility.yul\":5871:5877   */\n      dup5\n        /* \"#utility.yul\":5866:5869   */\n      dup5\n        /* \"#utility.yul\":5862:5878   */\n      add\n        /* \"#utility.yul\":5859:5884   */\n      gt\n        /* \"#utility.yul\":5856:5968   */\n      iszero\n      tag_193\n      jumpi\n        /* \"#utility.yul\":5887:5966   */\n      tag_194\n      tag_111\n      jump\t// in\n    tag_194:\n        /* \"#utility.yul\":5856:5968   */\n    tag_193:\n        /* \"#utility.yul\":5977:6018   */\n      tag_195\n        /* \"#utility.yul\":6011:6017   */\n      dup5\n        /* \"#utility.yul\":6006:6009   */\n      dup3\n        /* \"#utility.yul\":6001:6004   */\n      dup6\n        /* \"#utility.yul\":5977:6018   */\n      tag_116\n      jump\t// in\n    tag_195:\n        /* \"#utility.yul\":5696:6024   */\n      pop\n        /* \"#utility.yul\":5612:6024   */\n      swap4\n      swap3\n      pop\n      pop\n      pop\n      jump\t// out\n        /* \"#utility.yul\":6044:6384   */\n    tag_118:\n        /* \"#utility.yul\":6100:6105   */\n      0x00\n        /* \"#utility.yul\":6149:6152   */\n      dup3\n        /* \"#utility.yul\":6142:6146   */\n      0x1f\n        /* \"#utility.yul\":6134:6140   */\n      dup4\n        /* \"#utility.yul\":6130:6147   */\n      add\n        /* \"#utility.yul\":6126:6153   */\n      slt\n        /* \"#utility.yul\":6116:6238   */\n      tag_197\n      jumpi\n        /* \"#utility.yul\":6157:6236   */\n      tag_198\n      tag_110\n      jump\t// in\n    tag_198:\n        /* \"#utility.yul\":6116:6238   */\n    tag_197:\n        /* \"#utility.yul\":6274:6280   */\n      dup2\n        /* \"#utility.yul\":6261:6281   */\n      calldataload\n        /* \"#utility.yul\":6299:6378   */\n      tag_199\n        /* \"#utility.yul\":6374:6377   */\n      dup5\n        /* \"#utility.yul\":6366:6372   */\n      dup3\n        /* \"#utility.yul\":6359:6363   */\n      0x20\n        /* \"#utility.yul\":6351:6357   */\n      dup7\n        /* \"#utility.yul\":6347:6364   */\n      add\n        /* \"#utility.yul\":6299:6378   */\n      tag_117\n      jump\t// in\n    tag_199:\n        /* \"#utility.yul\":6290:6378   */\n      swap2\n      pop\n        /* \"#utility.yul\":6106:6384   */\n      pop\n        /* \"#utility.yul\":6044:6384   */\n      swap3\n      swap2\n      pop\n      pop\n      jump\t// out\n        /* \"#utility.yul\":6390:6528   */\n    tag_119:\n        /* \"#utility.yul\":6471:6503   */\n      tag_201\n        /* \"#utility.yul\":6497:6502   */\n      dup2\n        /* \"#utility.yul\":6471:6503   */\n      tag_105\n      jump\t// in\n    tag_201:\n        /* \"#utility.yul\":6464:6469   */\n      dup2\n        /* \"#utility.yul\":6461:6504   */\n      eq\n        /* \"#utility.yul\":6451:6522   */\n      tag_202\n      jumpi\n        /* \"#utility.yul\":6518:6519   */\n      0x00\n        /* \"#utility.yul\":6515:6516   */\n      dup1\n        /* \"#utility.yul\":6508:6520   */\n      revert\n        /* \"#utility.yul\":6451:6522   */\n    tag_202:\n        /* \"#utility.yul\":6390:6528   */\n      pop\n      jump\t// out\n        /* \"#utility.yul\":6534:6689   */\n    tag_120:\n        /* \"#utility.yul\":6588:6593   */\n      0x00\n        /* \"#utility.yul\":6626:6632   */\n      dup2\n        /* \"#utility.yul\":6613:6633   */\n      calldataload\n        /* \"#utility.yul\":6604:6633   */\n      swap1\n      pop\n        /* \"#utility.yul\":6642:6683   */\n      tag_204\n        /* \"#utility.yul\":6677:6682   */\n      dup2\n        /* \"#utility.yul\":6642:6683   */\n      tag_119\n      jump\t// in\n    tag_204:\n        /* \"#utility.yul\":6534:6689   */\n      swap3\n      swap2\n      pop\n      pop\n      jump\t// out\n        /* \"#utility.yul\":6695:7510   */\n    tag_44:\n        /* \"#utility.yul\":6790:6796   */\n      0x00\n        /* \"#utility.yul\":6798:6804   */\n      dup1\n        /* \"#utility.yul\":6806:6812   */\n      0x00\n        /* \"#utility.yul\":6855:6857   */\n      0x60\n        /* \"#utility.yul\":6843:6852   */\n      dup5\n        /* \"#utility.yul\":6834:6841   */\n      dup7\n        /* \"#utility.yul\":6830:6853   */\n      sub\n        /* \"#utility.yul\":6826:6858   */\n      slt\n        /* \"#utility.yul\":6823:6942   */\n      iszero\n      tag_206\n      jumpi\n        /* \"#utility.yul\":6861:6940   */\n      tag_207\n      tag_92\n      jump\t// in\n    tag_207:\n        /* \"#utility.yul\":6823:6942   */\n    tag_206:\n        /* \"#utility.yul\":7009:7010   */\n      0x00\n        /* \"#utility.yul\":6998:7007   */\n      dup5\n        /* \"#utility.yul\":6994:7011   */\n      add\n        /* \"#utility.yul\":6981:7012   */\n      calldataload\n        /* \"#utility.yul\":7039:7057   */\n      0xffffffffffffffff\n        /* \"#utility.yul\":7031:7037   */\n      dup2\n        /* \"#utility.yul\":7028:7058   */\n      gt\n        /* \"#utility.yul\":7025:7142   */\n      iszero\n      tag_208\n      jumpi\n        /* \"#utility.yul\":7061:7140   */\n      tag_209\n      tag_93\n      jump\t// in\n    tag_209:\n        /* \"#utility.yul\":7025:7142   */\n    tag_208:\n        /* \"#utility.yul\":7166:7229   */\n      tag_210\n        /* \"#utility.yul\":7221:7228   */\n      dup7\n        /* \"#utility.yul\":7212:7218   */\n      dup3\n        /* \"#utility.yul\":7201:7210   */\n      dup8\n        /* \"#utility.yul\":7197:7219   */\n      add\n        /* \"#utility.yul\":7166:7229   */\n      tag_118\n      jump\t// in\n    tag_210:\n        /* \"#utility.yul\":7156:7229   */\n      swap4\n      pop\n        /* \"#utility.yul\":6952:7239   */\n      pop\n        /* \"#utility.yul\":7278:7280   */\n      0x20\n        /* \"#utility.yul\":7304:7357   */\n      tag_211\n        /* \"#utility.yul\":7349:7356   */\n      dup7\n        /* \"#utility.yul\":7340:7346   */\n      dup3\n        /* \"#utility.yul\":7329:7338   */\n      dup8\n        /* \"#utility.yul\":7325:7347   */\n      add\n        /* \"#utility.yul\":7304:7357   */\n      tag_96\n      jump\t// in\n    tag_211:\n        /* \"#utility.yul\":7294:7357   */\n      swap3\n      pop\n        /* \"#utility.yul\":7249:7367   */\n      pop\n        /* \"#utility.yul\":7406:7408   */\n      0x40\n        /* \"#utility.yul\":7432:7493   */\n      tag_212\n        /* \"#utility.yul\":7485:7492   */\n      dup7\n        /* \"#utility.yul\":7476:7482   */\n      dup3\n        /* \"#utility.yul\":7465:7474   */\n      dup8\n        /* \"#utility.yul\":7461:7483   */\n      add\n        /* \"#utility.yul\":7432:7493   */\n      tag_120\n      jump\t// in\n    tag_212:\n        /* \"#utility.yul\":7422:7493   */\n      swap2\n      pop\n        /* \"#utility.yul\":7377:7503   */\n      pop\n        /* \"#utility.yul\":6695:7510   */\n      swap3\n      pop\n      swap3\n      pop\n      swap3\n      jump\t// out\n        /* \"#utility.yul\":7516:7696   */\n    tag_121:\n        /* \"#utility.yul\":7564:7641   */\n      0x4e487b7100000000000000000000000000000000000000000000000000000000\n        /* \"#utility.yul\":7561:7562   */\n      0x00\n        /* \"#utility.yul\":7554:7642   */\n      mstore\n        /* \"#utility.yul\":7661:7665   */\n      0x12\n        /* \"#utility.yul\":7658:7659   */\n      0x04\n        /* \"#utility.yul\":7651:7666   */\n      mstore\n        /* \"#utility.yul\":7685:7689   */\n      0x24\n        /* \"#utility.yul\":7682:7683   */\n      0x00\n        /* \"#utility.yul\":7675:7690   */\n      revert\n        /* \"#utility.yul\":7702:7882   */\n    tag_122:\n        /* \"#utility.yul\":7750:7827   */\n      0x4e487b7100000000000000000000000000000000000000000000000000000000\n        /* \"#utility.yul\":7747:7748   */\n      0x00\n        /* \"#utility.yul\":7740:7828   */\n      mstore\n        /* \"#utility.yul\":7847:7851   */\n      0x11\n        /* \"#utility.yul\":7844:7845   */\n      0x04\n        /* \"#utility.yul\":7837:7852   */\n      mstore\n        /* \"#utility.yul\":7871:7875   */\n      0x24\n        /* \"#utility.yul\":7868:7869   */\n      0x00\n        /* \"#utility.yul\":7861:7876   */\n      revert\n        /* \"#utility.yul\":7888:8073   */\n    tag_56:\n        /* \"#utility.yul\":7928:7929   */\n      0x00\n        /* \"#utility.yul\":7945:7965   */\n      tag_216\n        /* \"#utility.yul\":7963:7964   */\n      dup3\n        /* \"#utility.yul\":7945:7965   */\n      tag_94\n      jump\t// in\n    tag_216:\n        /* \"#utility.yul\":7940:7965   */\n      swap2\n      pop\n        /* \"#utility.yul\":7979:7999   */\n      tag_217\n        /* \"#utility.yul\":7997:7998   */\n      dup4\n        /* \"#utility.yul\":7979:7999   */\n      tag_94\n      jump\t// in\n    tag_217:\n        /* \"#utility.yul\":7974:7999   */\n      swap3\n      pop\n        /* \"#utility.yul\":8018:8019   */\n      dup3\n        /* \"#utility.yul\":8008:8043   */\n      tag_218\n      jumpi\n        /* \"#utility.yul\":8023:8041   */\n      tag_219\n      tag_121\n      jump\t// in\n    tag_219:\n        /* \"#utility.yul\":8008:8043   */\n    tag_218:\n        /* \"#utility.yul\":8065:8066   */\n      dup3\n        /* \"#utility.yul\":8062:8063   */\n      dup3\n        /* \"#utility.yul\":8058:8067   */\n      div\n        /* \"#utility.yul\":8053:8067   */\n      swap1\n      pop\n        /* \"#utility.yul\":7888:8073   */\n      swap3\n      swap2\n      pop\n      pop\n      jump\t// out\n        /* \"#utility.yul\":8079:8259   */\n    tag_123:\n        /* \"#utility.yul\":8127:8204   */\n      0x4e487b7100000000000000000000000000000000000000000000000000000000\n        /* \"#utility.yul\":8124:8125   */\n      0x00\n        /* \"#utility.yul\":8117:8205   */\n      mstore\n        /* \"#utility.yul\":8224:8228   */\n      0x22\n        /* \"#utility.yul\":8221:8222   */\n      0x04\n        /* \"#utility.yul\":8214:8229   */\n      mstore\n        /* \"#utility.yul\":8248:8252   */\n      0x24\n        /* \"#utility.yul\":8245:8246   */\n      0x00\n        /* \"#utility.yul\":8238:8253   */\n      revert\n        /* \"#utility.yul\":8265:8585   */\n    tag_62:\n        /* \"#utility.yul\":8309:8315   */\n      0x00\n        /* \"#utility.yul\":8346:8347   */\n      0x02\n        /* \"#utility.yul\":8340:8344   */\n      dup3\n        /* \"#utility.yul\":8336:8348   */\n      div\n        /* \"#utility.yul\":8326:8348   */\n      swap1\n      pop\n        /* \"#utility.yul\":8393:8394   */\n      0x01\n        /* \"#utility.yul\":8387:8391   */\n      dup3\n        /* \"#utility.yul\":8383:8395   */\n      and\n        /* \"#utility.yul\":8414:8432   */\n      dup1\n        /* \"#utility.yul\":8404:8485   */\n      tag_222\n      jumpi\n        /* \"#utility.yul\":8470:8474   */\n      0x7f\n        /* \"#utility.yul\":8462:8468   */\n      dup3\n        /* \"#utility.yul\":8458:8475   */\n      and\n        /* \"#utility.yul\":8448:8475   */\n      swap2\n      pop\n        /* \"#utility.yul\":8404:8485   */\n    tag_222:\n        /* \"#utility.yul\":8532:8534   */\n      0x20\n        /* \"#utility.yul\":8524:8530   */\n      dup3\n        /* \"#utility.yul\":8521:8535   */\n      lt\n        /* \"#utility.yul\":8501:8519   */\n      dup2\n        /* \"#utility.yul\":8498:8536   */\n      eq\n        /* \"#utility.yul\":8495:8579   */\n      iszero\n      tag_223\n      jumpi\n        /* \"#utility.yul\":8551:8569   */\n      tag_224\n      tag_123\n      jump\t// in\n    tag_224:\n        /* \"#utility.yul\":8495:8579   */\n    tag_223:\n        /* \"#utility.yul\":8316:8585   */\n      pop\n        /* \"#utility.yul\":8265:8585   */\n      swap2\n      swap1\n      pop\n      jump\t// out\n        /* \"#utility.yul\":8591:8824   */\n    tag_71:\n        /* \"#utility.yul\":8630:8633   */\n      0x00\n        /* \"#utility.yul\":8653:8677   */\n      tag_226\n        /* \"#utility.yul\":8671:8676   */\n      dup3\n        /* \"#utility.yul\":8653:8677   */\n      tag_94\n      jump\t// in\n    tag_226:\n        /* \"#utility.yul\":8644:8677   */\n      swap2\n      pop\n        /* \"#utility.yul\":8699:8765   */\n      0xffffffffffffffffffffffffffffffffffffffffffffffffffffffffffffffff\n        /* \"#utility.yul\":8692:8697   */\n      dup3\n        /* \"#utility.yul\":8689:8766   */\n      eq\n        /* \"#utility.yul\":8686:8789   */\n      iszero\n      tag_227\n      jumpi\n        /* \"#utility.yul\":8769:8787   */\n      tag_228\n      tag_122\n      jump\t// in\n    tag_228:\n        /* \"#utility.yul\":8686:8789   */\n    tag_227:\n        /* \"#utility.yul\":8816:8817   */\n      0x01\n        /* \"#utility.yul\":8809:8814   */\n      dup3\n        /* \"#utility.yul\":8805:8818   */\n      add\n        /* \"#utility.yul\":8798:8818   */\n      swap1\n      pop\n        /* \"#utility.yul\":8591:8824   */\n      swap2\n      swap1\n      pop\n      jump\t// out\n\n    auxdata: 0xa26469706673582212206d2fb541086c6f45c0280d0934cb0984fc0760a62c118a4c12216ce04fc5d1c864736f6c634300080b0033\n}\n","bytecode":{"linkReferences":{},"object":"608060405260006005553480156200001657600080fd5b5060405162000ec538038062000ec583398181016040528101906200003c919062000130565b806000806101000a81548173ffffffffffffffffffffffffffffffffffffffff021916908373ffffffffffffffffffffffffffffffffffffffff16021790555081600181905550505062000177565b600080fd5b6000819050919050565b620000a58162000090565b8114620000b157600080fd5b50565b600081519050620000c5816200009a565b92915050565b600073ffffffffffffffffffffffffffffffffffffffff82169050919050565b6000620000f882620000cb565b9050919050565b6200010a81620000eb565b81146200011657600080fd5b50565b6000815190506200012a81620000ff565b92915050565b600080604083850312156200014a57620001496200008b565b5b60006200015a85828601620000b4565b92505060206200016d8582860162000119565b9150509250929050565b610d3e80620001876000396000f3fe6080604052600436106100865760003560e01c8063937e09b111610059578063937e09b11461014b5780639fb42b1f14610176578063cd6990e6146101a1578063d7bb99ba146101ca578063d7d1bbdb146101d457610086565b8063034410061461008b578063481c6a75146100b457806381d12c58146100df57806382fde09314610120575b600080fd5b34801561009757600080fd5b506100b260048036038101906100ad919061081d565b6101fd565b005b3480156100c057600080fd5b506100c9610336565b6040516100d6919061088b565b60405180910390f35b3480156100eb57600080fd5b506101066004803603810190610101919061081d565b61035a565b60405161011795949392919061098a565b60405180910390f35b34801561012c57600080fd5b50610135610445565b60405161014291906109e4565b60405180910390f35b34801561015757600080fd5b5061016061044b565b60405161016d91906109e4565b60405180910390f35b34801561018257600080fd5b5061018b610451565b60405161019891906109e4565b60405180910390f35b3480156101ad57600080fd5b506101c860048036038101906101c39190610b60565b610457565b005b6101d2610572565b005b3480156101e057600080fd5b506101fb60048036038101906101f6919061081d565b6105f2565b005b60008054906101000a900473ffffffffffffffffffffffffffffffffffffffff1673ffffffffffffffffffffffffffffffffffffffff163373ffffffffffffffffffffffffffffffffffffffff161461025557600080fd5b6000600260008381526020019081526020016000209050600260055461027b9190610c2d565b81600401541161028a57600080fd5b8060030160009054906101000a900460ff16156102a657600080fd5b8060010160009054906101000a900473ffffffffffffffffffffffffffffffffffffffff1673ffffffffffffffffffffffffffffffffffffffff166108fc82600201549081150290604051600060405180830381858888f19350505050158015610314573d6000803e3d6000fd5b5060018160030160006101000a81548160ff0219169083151502179055505050565b60008054906101000a900473ffffffffffffffffffffffffffffffffffffffff1681565b600260205280600052604060002060009150905080600001805461037d90610c8d565b80601f01602080910402602001604051908101604052809291908181526020018280546103a990610c8d565b80156103f65780601f106103cb576101008083540402835291602001916103f6565b820191906000526020600020905b8154815290600101906020018083116103d957829003601f168201915b5050505050908060010160009054906101000a900473ffffffffffffffffffffffffffffffffffffffff16908060020154908060030160009054906101000a900460ff16908060040154905085565b60055481565b60015481565b60045481565b60008054906101000a900473ffffffffffffffffffffffffffffffffffffffff1673ffffffffffffffffffffffffffffffffffffffff163373ffffffffffffffffffffffffffffffffffffffff16146104af57600080fd5b60006002600060045481526020019081526020016000209050600460008154809291906104db90610cbf565b9190505550838160000190805190602001906104f8929190610730565b50818160010160006101000a81548173ffffffffffffffffffffffffffffffffffffffff021916908373ffffffffffffffffffffffffffffffffffffffff16021790555082816002018190555060008160030160006101000a81548160ff0219169083151502179055506000816004018190555050505050565b600154341161058057600080fd5b6001600360003373ffffffffffffffffffffffffffffffffffffffff1673ffffffffffffffffffffffffffffffffffffffff16815260200190815260200160002060006101000a81548160ff021916908315150217905550600560008154809291906105eb90610cbf565b9190505550565b6000600260008381526020019081526020016000209050600360003373ffffffffffffffffffffffffffffffffffffffff1673ffffffffffffffffffffffffffffffffffffffff16815260200190815260200160002060009054906101000a900460ff1661065f57600080fd5b8060050160003373ffffffffffffffffffffffffffffffffffffffff1673ffffffffffffffffffffffffffffffffffffffff16815260200190815260200160002060009054906101000a900460ff16156106b857600080fd5b60018160050160003373ffffffffffffffffffffffffffffffffffffffff1673ffffffffffffffffffffffffffffffffffffffff16815260200190815260200160002060006101000a81548160ff02191690831515021790555080600401600081548092919061072790610cbf565b91905055505050565b82805461073c90610c8d565b90600052602060002090601f01602090048101928261075e57600085556107a5565b82601f1061077757805160ff19168380011785556107a5565b828001600101855582156107a5579182015b828111156107a4578251825591602001919060010190610789565b5b5090506107b291906107b6565b5090565b5b808211156107cf5760008160009055506001016107b7565b5090565b6000604051905090565b600080fd5b600080fd5b6000819050919050565b6107fa816107e7565b811461080557600080fd5b50565b600081359050610817816107f1565b92915050565b600060208284031215610833576108326107dd565b5b600061084184828501610808565b91505092915050565b600073ffffffffffffffffffffffffffffffffffffffff82169050919050565b60006108758261084a565b9050919050565b6108858161086a565b82525050565b60006020820190506108a0600083018461087c565b92915050565b600081519050919050565b600082825260208201905092915050565b60005b838110156108e05780820151818401526020810190506108c5565b838111156108ef576000848401525b50505050565b6000601f19601f8301169050919050565b6000610911826108a6565b61091b81856108b1565b935061092b8185602086016108c2565b610934816108f5565b840191505092915050565b600061094a8261084a565b9050919050565b61095a8161093f565b82525050565b610969816107e7565b82525050565b60008115159050919050565b6109848161096f565b82525050565b600060a08201905081810360008301526109a48188610906565b90506109b36020830187610951565b6109c06040830186610960565b6109cd606083018561097b565b6109da6080830184610960565b9695505050505050565b60006020820190506109f96000830184610960565b92915050565b600080fd5b600080fd5b7f4e487b7100000000000000000000000000000000000000000000000000000000600052604160045260246000fd5b610a41826108f5565b810181811067ffffffffffffffff82111715610a6057610a5f610a09565b5b80604052505050565b6000610a736107d3565b9050610a7f8282610a38565b919050565b600067ffffffffffffffff821115610a9f57610a9e610a09565b5b610aa8826108f5565b9050602081019050919050565b82818337600083830152505050565b6000610ad7610ad284610a84565b610a69565b905082815260208101848484011115610af357610af2610a04565b5b610afe848285610ab5565b509392505050565b600082601f830112610b1b57610b1a6109ff565b5b8135610b2b848260208601610ac4565b91505092915050565b610b3d8161093f565b8114610b4857600080fd5b50565b600081359050610b5a81610b34565b92915050565b600080600060608486031215610b7957610b786107dd565b5b600084013567ffffffffffffffff811115610b9757610b966107e2565b5b610ba386828701610b06565b9350506020610bb486828701610808565b9250506040610bc586828701610b4b565b9150509250925092565b7f4e487b7100000000000000000000000000000000000000000000000000000000600052601260045260246000fd5b7f4e487b7100000000000000000000000000000000000000000000000000000000600052601160045260246000fd5b6000610c38826107e7565b9150610c43836107e7565b925082610c5357610c52610bcf565b5b828204905092915050565b7f4e487b7100000000000000000000000000000000000000000000000000000000600052602260045260246000fd5b60006002820490506001821680610ca557607f821691505b60208210811415610cb957610cb8610c5e565b5b50919050565b6000610cca826107e7565b91507fffffffffffffffffffffffffffffffffffffffffffffffffffffffffffffffff821415610cfd57610cfc610bfe565b5b60018201905091905056fea26469706673582212206d2fb541086c6f45c0280d0934cb0984fc0760a62c118a4c12216ce04fc5d1c864736f6c634300080b0033","opcodes":"PUSH1 0x80 PUSH1 0x40 MSTORE PUSH1 0x0 PUSH1 0x5 SSTORE CALLVALUE DUP1 ISZERO PUSH3 0x16 JUMPI PUSH1 0x0 DUP1 REVERT JUMPDEST POP PUSH1 0x40 MLOAD PUSH3 0xEC5 CODESIZE SUB DUP1 PUSH3 0xEC5 DUP4 CODECOPY DUP2 DUP2 ADD PUSH1 0x40 MSTORE DUP2 ADD SWAP1 PUSH3 0x3C SWAP2 SWAP1 PUSH3 0x130 JUMP JUMPDEST DUP1 PUSH1 0x0 DUP1 PUSH2 0x100 EXP DUP2 SLOAD DUP2 PUSH20 0xFFFFFFFFFFFFFFFFFFFFFFFFFFFFFFFFFFFFFFFF MUL NOT AND SWAP1 DUP4 PUSH20 0xFFFFFFFFFFFFFFFFFFFFFFFFFFFFFFFFFFFFFFFF AND MUL OR SWAP1 SSTORE POP DUP2 PUSH1 0x1 DUP2 SWAP1 SSTORE POP POP POP PUSH3 0x177 JUMP JUMPDEST PUSH1 0x0 DUP1 REVERT JUMPDEST PUSH1 0x0 DUP2 SWAP1 POP SWAP2 SWAP1 POP JUMP JUMPDEST PUSH3 0xA5 DUP2 PUSH3 0x90 JUMP JUMPDEST DUP2 EQ PUSH3 0xB1 JUMPI PUSH1 0x0 DUP1 REVERT JUMPDEST POP JUMP JUMPDEST PUSH1 0x0 DUP2 MLOAD SWAP1 POP PUSH3 0xC5 DUP2 PUSH3 0x9A JUMP JUMPDEST SWAP3 SWAP2 POP POP JUMP JUMPDEST PUSH1 0x0 PUSH20 0xFFFFFFFFFFFFFFFFFFFFFFFFFFFFFFFFFFFFFFFF DUP3 AND SWAP1 POP SWAP2 SWAP1 POP JUMP JUMPDEST PUSH1 0x0 PUSH3 0xF8 DUP3 PUSH3 0xCB JUMP JUMPDEST SWAP1 POP SWAP2 SWAP1 POP JUMP JUMPDEST PUSH3 0x10A DUP2 PUSH3 0xEB JUMP JUMPDEST DUP2 EQ PUSH3 0x116 JUMPI PUSH1 0x0 DUP1 REVERT JUMPDEST POP JUMP JUMPDEST PUSH1 0x0 DUP2 MLOAD SWAP1 POP PUSH3 0x12A DUP2 PUSH3 0xFF JUMP JUMPDEST SWAP3 SWAP2 POP POP JUMP JUMPDEST PUSH1 0x0 DUP1 PUSH1 0x40 DUP4 DUP6 SUB SLT ISZERO PUSH3 0x14A JUMPI PUSH3 0x149 PUSH3 0x8B JUMP JUMPDEST JUMPDEST PUSH1 0x0 PUSH3 0x15A DUP6 DUP3 DUP7 ADD PUSH3 0xB4 JUMP JUMPDEST SWAP3 POP POP PUSH1 0x20 PUSH3 0x16D DUP6 DUP3 DUP7 ADD PUSH3 0x119 JUMP JUMPDEST SWAP2 POP POP SWAP3 POP SWAP3 SWAP1 POP JUMP JUMPDEST PUSH2 0xD3E DUP1 PUSH3 0x187 PUSH1 0x0 CODECOPY PUSH1 0x0 RETURN INVALID PUSH1 0x80 PUSH1 0x40 MSTORE PUSH1 0x4 CALLDATASIZE LT PUSH2 0x86 JUMPI PUSH1 0x0 CALLDATALOAD PUSH1 0xE0 SHR DUP1 PUSH4 0x937E09B1 GT PUSH2 0x59 JUMPI DUP1 PUSH4 0x937E09B1 EQ PUSH2 0x14B JUMPI DUP1 PUSH4 0x9FB42B1F EQ PUSH2 0x176 JUMPI DUP1 PUSH4 0xCD6990E6 EQ PUSH2 0x1A1 JUMPI DUP1 PUSH4 0xD7BB99BA EQ PUSH2 0x1CA JUMPI DUP1 PUSH4 0xD7D1BBDB EQ PUSH2 0x1D4 JUMPI PUSH2 0x86 JUMP JUMPDEST DUP1 PUSH4 0x3441006 EQ PUSH2 0x8B JUMPI DUP1 PUSH4 0x481C6A75 EQ PUSH2 0xB4 JUMPI DUP1 PUSH4 0x81D12C58 EQ PUSH2 0xDF JUMPI DUP1 PUSH4 0x82FDE093 EQ PUSH2 0x120 JUMPI JUMPDEST PUSH1 0x0 DUP1 REVERT JUMPDEST CALLVALUE DUP1 ISZERO PUSH2 0x97 JUMPI PUSH1 0x0 DUP1 REVERT JUMPDEST POP PUSH2 0xB2 PUSH1 0x4 DUP1 CALLDATASIZE SUB DUP2 ADD SWAP1 PUSH2 0xAD SWAP2 SWAP1 PUSH2 0x81D JUMP JUMPDEST PUSH2 0x1FD JUMP JUMPDEST STOP JUMPDEST CALLVALUE DUP1 ISZERO PUSH2 0xC0 JUMPI PUSH1 0x0 DUP1 REVERT JUMPDEST POP PUSH2 0xC9 PUSH2 0x336 JUMP JUMPDEST PUSH1 0x40 MLOAD PUSH2 0xD6 SWAP2 SWAP1 PUSH2 0x88B JUMP JUMPDEST PUSH1 0x40 MLOAD DUP1 SWAP2 SUB SWAP1 RETURN JUMPDEST CALLVALUE DUP1 ISZERO PUSH2 0xEB JUMPI PUSH1 0x0 DUP1 REVERT JUMPDEST POP PUSH2 0x106 PUSH1 0x4 DUP1 CALLDATASIZE SUB DUP2 ADD SWAP1 PUSH2 0x101 SWAP2 SWAP1 PUSH2 0x81D JUMP JUMPDEST PUSH2 0x35A JUMP JUMPDEST PUSH1 0x40 MLOAD PUSH2 0x117 SWAP6 SWAP5 SWAP4 SWAP3 SWAP2 SWAP1 PUSH2 0x98A JUMP JUMPDEST PUSH1 0x40 MLOAD DUP1 SWAP2 SUB SWAP1 RETURN JUMPDEST CALLVALUE DUP1 ISZERO PUSH2 0x12C JUMPI PUSH1 0x0 DUP1 REVERT JUMPDEST POP PUSH2 0x135 PUSH2 0x445 JUMP JUMPDEST PUSH1 0x40 MLOAD PUSH2 0x142 SWAP2 SWAP1 PUSH2 0x9E4 JUMP JUMPDEST PUSH1 0x40 MLOAD DUP1 SWAP2 SUB SWAP1 RETURN JUMPDEST CALLVALUE DUP1 ISZERO PUSH2 0x157 JUMPI PUSH1 0x0 DUP1 REVERT JUMPDEST POP PUSH2 0x160 PUSH2 0x44B JUMP JUMPDEST PUSH1 0x40 MLOAD PUSH2 0x16D SWAP2 SWAP1 PUSH2 0x9E4 JUMP JUMPDEST PUSH1 0x40 MLOAD DUP1 SWAP2 SUB SWAP1 RETURN JUMPDEST CALLVALUE DUP1 ISZERO PUSH2 0x182 JUMPI PUSH1 0x0 DUP1 REVERT JUMPDEST POP PUSH2 0x18B PUSH2 0x451 JUMP JUMPDEST PUSH1 0x40 MLOAD PUSH2 0x198 SWAP2 SWAP1 PUSH2 0x9E4 JUMP JUMPDEST PUSH1 0x40 MLOAD DUP1 SWAP2 SUB SWAP1 RETURN JUMPDEST CALLVALUE DUP1 ISZERO PUSH2 0x1AD JUMPI PUSH1 0x0 DUP1 REVERT JUMPDEST POP PUSH2 0x1C8 PUSH1 0x4 DUP1 CALLDATASIZE SUB DUP2 ADD SWAP1 PUSH2 0x1C3 SWAP2 SWAP1 PUSH2 0xB60 JUMP JUMPDEST PUSH2 0x457 JUMP JUMPDEST STOP JUMPDEST PUSH2 0x1D2 PUSH2 0x572 JUMP JUMPDEST STOP JUMPDEST CALLVALUE DUP1 ISZERO PUSH2 0x1E0 JUMPI PUSH1 0x0 DUP1 REVERT JUMPDEST POP PUSH2 0x1FB PUSH1 0x4 DUP1 CALLDATASIZE SUB DUP2 ADD SWAP1 PUSH2 0x1F6 SWAP2 SWAP1 PUSH2 0x81D JUMP JUMPDEST PUSH2 0x5F2 JUMP JUMPDEST STOP JUMPDEST PUSH1 0x0 DUP1 SLOAD SWAP1 PUSH2 0x100 EXP SWAP1 DIV PUSH20 0xFFFFFFFFFFFFFFFFFFFFFFFFFFFFFFFFFFFFFFFF AND PUSH20 0xFFFFFFFFFFFFFFFFFFFFFFFFFFFFFFFFFFFFFFFF AND CALLER PUSH20 0xFFFFFFFFFFFFFFFFFFFFFFFFFFFFFFFFFFFFFFFF AND EQ PUSH2 0x255 JUMPI PUSH1 0x0 DUP1 REVERT JUMPDEST PUSH1 0x0 PUSH1 0x2 PUSH1 0x0 DUP4 DUP2 MSTORE PUSH1 0x20 ADD SWAP1 DUP2 MSTORE PUSH1 0x20 ADD PUSH1 0x0 KECCAK256 SWAP1 POP PUSH1 0x2 PUSH1 0x5 SLOAD PUSH2 0x27B SWAP2 SWAP1 PUSH2 0xC2D JUMP JUMPDEST DUP2 PUSH1 0x4 ADD SLOAD GT PUSH2 0x28A JUMPI PUSH1 0x0 DUP1 REVERT JUMPDEST DUP1 PUSH1 0x3 ADD PUSH1 0x0 SWAP1 SLOAD SWAP1 PUSH2 0x100 EXP SWAP1 DIV PUSH1 0xFF AND ISZERO PUSH2 0x2A6 JUMPI PUSH1 0x0 DUP1 REVERT JUMPDEST DUP1 PUSH1 0x1 ADD PUSH1 0x0 SWAP1 SLOAD SWAP1 PUSH2 0x100 EXP SWAP1 DIV PUSH20 0xFFFFFFFFFFFFFFFFFFFFFFFFFFFFFFFFFFFFFFFF AND PUSH20 0xFFFFFFFFFFFFFFFFFFFFFFFFFFFFFFFFFFFFFFFF AND PUSH2 0x8FC DUP3 PUSH1 0x2 ADD SLOAD SWAP1 DUP2 ISZERO MUL SWAP1 PUSH1 0x40 MLOAD PUSH1 0x0 PUSH1 0x40 MLOAD DUP1 DUP4 SUB DUP2 DUP6 DUP9 DUP9 CALL SWAP4 POP POP POP POP ISZERO DUP1 ISZERO PUSH2 0x314 JUMPI RETURNDATASIZE PUSH1 0x0 DUP1 RETURNDATACOPY RETURNDATASIZE PUSH1 0x0 REVERT JUMPDEST POP PUSH1 0x1 DUP2 PUSH1 0x3 ADD PUSH1 0x0 PUSH2 0x100 EXP DUP2 SLOAD DUP2 PUSH1 0xFF MUL NOT AND SWAP1 DUP4 ISZERO ISZERO MUL OR SWAP1 SSTORE POP POP POP JUMP JUMPDEST PUSH1 0x0 DUP1 SLOAD SWAP1 PUSH2 0x100 EXP SWAP1 DIV PUSH20 0xFFFFFFFFFFFFFFFFFFFFFFFFFFFFFFFFFFFFFFFF AND DUP2 JUMP JUMPDEST PUSH1 0x2 PUSH1 0x20 MSTORE DUP1 PUSH1 0x0 MSTORE PUSH1 0x40 PUSH1 0x0 KECCAK256 PUSH1 0x0 SWAP2 POP SWAP1 POP DUP1 PUSH1 0x0 ADD DUP1 SLOAD PUSH2 0x37D SWAP1 PUSH2 0xC8D JUMP JUMPDEST DUP1 PUSH1 0x1F ADD PUSH1 0x20 DUP1 SWAP2 DIV MUL PUSH1 0x20 ADD PUSH1 0x40 MLOAD SWAP1 DUP2 ADD PUSH1 0x40 MSTORE DUP1 SWAP3 SWAP2 SWAP1 DUP2 DUP2 MSTORE PUSH1 0x20 ADD DUP3 DUP1 SLOAD PUSH2 0x3A9 SWAP1 PUSH2 0xC8D JUMP JUMPDEST DUP1 ISZERO PUSH2 0x3F6 JUMPI DUP1 PUSH1 0x1F LT PUSH2 0x3CB JUMPI PUSH2 0x100 DUP1 DUP4 SLOAD DIV MUL DUP4 MSTORE SWAP2 PUSH1 0x20 ADD SWAP2 PUSH2 0x3F6 JUMP JUMPDEST DUP3 ADD SWAP2 SWAP1 PUSH1 0x0 MSTORE PUSH1 0x20 PUSH1 0x0 KECCAK256 SWAP1 JUMPDEST DUP2 SLOAD DUP2 MSTORE SWAP1 PUSH1 0x1 ADD SWAP1 PUSH1 0x20 ADD DUP1 DUP4 GT PUSH2 0x3D9 JUMPI DUP3 SWAP1 SUB PUSH1 0x1F AND DUP3 ADD SWAP2 JUMPDEST POP POP POP POP POP SWAP1 DUP1 PUSH1 0x1 ADD PUSH1 0x0 SWAP1 SLOAD SWAP1 PUSH2 0x100 EXP SWAP1 DIV PUSH20 0xFFFFFFFFFFFFFFFFFFFFFFFFFFFFFFFFFFFFFFFF AND SWAP1 DUP1 PUSH1 0x2 ADD SLOAD SWAP1 DUP1 PUSH1 0x3 ADD PUSH1 0x0 SWAP1 SLOAD SWAP1 PUSH2 0x100 EXP SWAP1 DIV PUSH1 0xFF AND SWAP1 DUP1 PUSH1 0x4 ADD SLOAD SWAP1 POP DUP6 JUMP JUMPDEST PUSH1 0x5 SLOAD DUP2 JUMP JUMPDEST PUSH1 0x1 SLOAD DUP2 JUMP JUMPDEST PUSH1 0x4 SLOAD DUP2 JUMP JUMPDEST PUSH1 0x0 DUP1 SLOAD SWAP1 PUSH2 0x100 EXP SWAP1 DIV PUSH20 0xFFFFFFFFFFFFFFFFFFFFFFFFFFFFFFFFFFFFFFFF AND PUSH20 0xFFFFFFFFFFFFFFFFFFFFFFFFFFFFFFFFFFFFFFFF AND CALLER PUSH20 0xFFFFFFFFFFFFFFFFFFFFFFFFFFFFFFFFFFFFFFFF AND EQ PUSH2 0x4AF JUMPI PUSH1 0x0 DUP1 REVERT JUMPDEST PUSH1 0x0 PUSH1 0x2 PUSH1 0x0 PUSH1 0x4 SLOAD DUP2 MSTORE PUSH1 0x20 ADD SWAP1 DUP2 MSTORE PUSH1 0x20 ADD PUSH1 0x0 KECCAK256 SWAP1 POP PUSH1 0x4 PUSH1 0x0 DUP2 SLOAD DUP1 SWAP3 SWAP2 SWAP1 PUSH2 0x4DB SWAP1 PUSH2 0xCBF JUMP JUMPDEST SWAP2 SWAP1 POP SSTORE POP DUP4 DUP2 PUSH1 0x0 ADD SWAP1 DUP1 MLOAD SWAP1 PUSH1 0x20 ADD SWAP1 PUSH2 0x4F8 SWAP3 SWAP2 SWAP1 PUSH2 0x730 JUMP JUMPDEST POP DUP2 DUP2 PUSH1 0x1 ADD PUSH1 0x0 PUSH2 0x100 EXP DUP2 SLOAD DUP2 PUSH20 0xFFFFFFFFFFFFFFFFFFFFFFFFFFFFFFFFFFFFFFFF MUL NOT AND SWAP1 DUP4 PUSH20 0xFFFFFFFFFFFFFFFFFFFFFFFFFFFFFFFFFFFFFFFF AND MUL OR SWAP1 SSTORE POP DUP3 DUP2 PUSH1 0x2 ADD DUP2 SWAP1 SSTORE POP PUSH1 0x0 DUP2 PUSH1 0x3 ADD PUSH1 0x0 PUSH2 0x100 EXP DUP2 SLOAD DUP2 PUSH1 0xFF MUL NOT AND SWAP1 DUP4 ISZERO ISZERO MUL OR SWAP1 SSTORE POP PUSH1 0x0 DUP2 PUSH1 0x4 ADD DUP2 SWAP1 SSTORE POP POP POP POP POP JUMP JUMPDEST PUSH1 0x1 SLOAD CALLVALUE GT PUSH2 0x580 JUMPI PUSH1 0x0 DUP1 REVERT JUMPDEST PUSH1 0x1 PUSH1 0x3 PUSH1 0x0 CALLER PUSH20 0xFFFFFFFFFFFFFFFFFFFFFFFFFFFFFFFFFFFFFFFF AND PUSH20 0xFFFFFFFFFFFFFFFFFFFFFFFFFFFFFFFFFFFFFFFF AND DUP2 MSTORE PUSH1 0x20 ADD SWAP1 DUP2 MSTORE PUSH1 0x20 ADD PUSH1 0x0 KECCAK256 PUSH1 0x0 PUSH2 0x100 EXP DUP2 SLOAD DUP2 PUSH1 0xFF MUL NOT AND SWAP1 DUP4 ISZERO ISZERO MUL OR SWAP1 SSTORE POP PUSH1 0x5 PUSH1 0x0 DUP2 SLOAD DUP1 SWAP3 SWAP2 SWAP1 PUSH2 0x5EB SWAP1 PUSH2 0xCBF JUMP JUMPDEST SWAP2 SWAP1 POP SSTORE POP JUMP JUMPDEST PUSH1 0x0 PUSH1 0x2 PUSH1 0x0 DUP4 DUP2 MSTORE PUSH1 0x20 ADD SWAP1 DUP2 MSTORE PUSH1 0x20 ADD PUSH1 0x0 KECCAK256 SWAP1 POP PUSH1 0x3 PUSH1 0x0 CALLER PUSH20 0xFFFFFFFFFFFFFFFFFFFFFFFFFFFFFFFFFFFFFFFF AND PUSH20 0xFFFFFFFFFFFFFFFFFFFFFFFFFFFFFFFFFFFFFFFF AND DUP2 MSTORE PUSH1 0x20 ADD SWAP1 DUP2 MSTORE PUSH1 0x20 ADD PUSH1 0x0 KECCAK256 PUSH1 0x0 SWAP1 SLOAD SWAP1 PUSH2 0x100 EXP SWAP1 DIV PUSH1 0xFF AND PUSH2 0x65F JUMPI PUSH1 0x0 DUP1 REVERT JUMPDEST DUP1 PUSH1 0x5 ADD PUSH1 0x0 CALLER PUSH20 0xFFFFFFFFFFFFFFFFFFFFFFFFFFFFFFFFFFFFFFFF AND PUSH20 0xFFFFFFFFFFFFFFFFFFFFFFFFFFFFFFFFFFFFFFFF AND DUP2 MSTORE PUSH1 0x20 ADD SWAP1 DUP2 MSTORE PUSH1 0x20 ADD PUSH1 0x0 KECCAK256 PUSH1 0x0 SWAP1 SLOAD SWAP1 PUSH2 0x100 EXP SWAP1 DIV PUSH1 0xFF AND ISZERO PUSH2 0x6B8 JUMPI PUSH1 0x0 DUP1 REVERT JUMPDEST PUSH1 0x1 DUP2 PUSH1 0x5 ADD PUSH1 0x0 CALLER PUSH20 0xFFFFFFFFFFFFFFFFFFFFFFFFFFFFFFFFFFFFFFFF AND PUSH20 0xFFFFFFFFFFFFFFFFFFFFFFFFFFFFFFFFFFFFFFFF AND DUP2 MSTORE PUSH1 0x20 ADD SWAP1 DUP2 MSTORE PUSH1 0x20 ADD PUSH1 0x0 KECCAK256 PUSH1 0x0 PUSH2 0x100 EXP DUP2 SLOAD DUP2 PUSH1 0xFF MUL NOT AND SWAP1 DUP4 ISZERO ISZERO MUL OR SWAP1 SSTORE POP DUP1 PUSH1 0x4 ADD PUSH1 0x0 DUP2 SLOAD DUP1 SWAP3 SWAP2 SWAP1 PUSH2 0x727 SWAP1 PUSH2 0xCBF JUMP JUMPDEST SWAP2 SWAP1 POP SSTORE POP POP POP JUMP JUMPDEST DUP3 DUP1 SLOAD PUSH2 0x73C SWAP1 PUSH2 0xC8D JUMP JUMPDEST SWAP1 PUSH1 0x0 MSTORE PUSH1 0x20 PUSH1 0x0 KECCAK256 SWAP1 PUSH1 0x1F ADD PUSH1 0x20 SWAP1 DIV DUP2 ADD SWAP3 DUP3 PUSH2 0x75E JUMPI PUSH1 0x0 DUP6 SSTORE PUSH2 0x7A5 JUMP JUMPDEST DUP3 PUSH1 0x1F LT PUSH2 0x777 JUMPI DUP1 MLOAD PUSH1 0xFF NOT AND DUP4 DUP1 ADD OR DUP6 SSTORE PUSH2 0x7A5 JUMP JUMPDEST DUP3 DUP1 ADD PUSH1 0x1 ADD DUP6 SSTORE DUP3 ISZERO PUSH2 0x7A5 JUMPI SWAP2 DUP3 ADD JUMPDEST DUP3 DUP2 GT ISZERO PUSH2 0x7A4 JUMPI DUP3 MLOAD DUP3 SSTORE SWAP2 PUSH1 0x20 ADD SWAP2 SWAP1 PUSH1 0x1 ADD SWAP1 PUSH2 0x789 JUMP JUMPDEST JUMPDEST POP SWAP1 POP PUSH2 0x7B2 SWAP2 SWAP1 PUSH2 0x7B6 JUMP JUMPDEST POP SWAP1 JUMP JUMPDEST JUMPDEST DUP1 DUP3 GT ISZERO PUSH2 0x7CF JUMPI PUSH1 0x0 DUP2 PUSH1 0x0 SWAP1 SSTORE POP PUSH1 0x1 ADD PUSH2 0x7B7 JUMP JUMPDEST POP SWAP1 JUMP JUMPDEST PUSH1 0x0 PUSH1 0x40 MLOAD SWAP1 POP SWAP1 JUMP JUMPDEST PUSH1 0x0 DUP1 REVERT JUMPDEST PUSH1 0x0 DUP1 REVERT JUMPDEST PUSH1 0x0 DUP2 SWAP1 POP SWAP2 SWAP1 POP JUMP JUMPDEST PUSH2 0x7FA DUP2 PUSH2 0x7E7 JUMP JUMPDEST DUP2 EQ PUSH2 0x805 JUMPI PUSH1 0x0 DUP1 REVERT JUMPDEST POP JUMP JUMPDEST PUSH1 0x0 DUP2 CALLDATALOAD SWAP1 POP PUSH2 0x817 DUP2 PUSH2 0x7F1 JUMP JUMPDEST SWAP3 SWAP2 POP POP JUMP JUMPDEST PUSH1 0x0 PUSH1 0x20 DUP3 DUP5 SUB SLT ISZERO PUSH2 0x833 JUMPI PUSH2 0x832 PUSH2 0x7DD JUMP JUMPDEST JUMPDEST PUSH1 0x0 PUSH2 0x841 DUP5 DUP3 DUP6 ADD PUSH2 0x808 JUMP JUMPDEST SWAP2 POP POP SWAP3 SWAP2 POP POP JUMP JUMPDEST PUSH1 0x0 PUSH20 0xFFFFFFFFFFFFFFFFFFFFFFFFFFFFFFFFFFFFFFFF DUP3 AND SWAP1 POP SWAP2 SWAP1 POP JUMP JUMPDEST PUSH1 0x0 PUSH2 0x875 DUP3 PUSH2 0x84A JUMP JUMPDEST SWAP1 POP SWAP2 SWAP1 POP JUMP JUMPDEST PUSH2 0x885 DUP2 PUSH2 0x86A JUMP JUMPDEST DUP3 MSTORE POP POP JUMP JUMPDEST PUSH1 0x0 PUSH1 0x20 DUP3 ADD SWAP1 POP PUSH2 0x8A0 PUSH1 0x0 DUP4 ADD DUP5 PUSH2 0x87C JUMP JUMPDEST SWAP3 SWAP2 POP POP JUMP JUMPDEST PUSH1 0x0 DUP2 MLOAD SWAP1 POP SWAP2 SWAP1 POP JUMP JUMPDEST PUSH1 0x0 DUP3 DUP3 MSTORE PUSH1 0x20 DUP3 ADD SWAP1 POP SWAP3 SWAP2 POP POP JUMP JUMPDEST PUSH1 0x0 JUMPDEST DUP4 DUP2 LT ISZERO PUSH2 0x8E0 JUMPI DUP1 DUP3 ADD MLOAD DUP2 DUP5 ADD MSTORE PUSH1 0x20 DUP2 ADD SWAP1 POP PUSH2 0x8C5 JUMP JUMPDEST DUP4 DUP2 GT ISZERO PUSH2 0x8EF JUMPI PUSH1 0x0 DUP5 DUP5 ADD MSTORE JUMPDEST POP POP POP POP JUMP JUMPDEST PUSH1 0x0 PUSH1 0x1F NOT PUSH1 0x1F DUP4 ADD AND SWAP1 POP SWAP2 SWAP1 POP JUMP JUMPDEST PUSH1 0x0 PUSH2 0x911 DUP3 PUSH2 0x8A6 JUMP JUMPDEST PUSH2 0x91B DUP2 DUP6 PUSH2 0x8B1 JUMP JUMPDEST SWAP4 POP PUSH2 0x92B DUP2 DUP6 PUSH1 0x20 DUP7 ADD PUSH2 0x8C2 JUMP JUMPDEST PUSH2 0x934 DUP2 PUSH2 0x8F5 JUMP JUMPDEST DUP5 ADD SWAP2 POP POP SWAP3 SWAP2 POP POP JUMP JUMPDEST PUSH1 0x0 PUSH2 0x94A DUP3 PUSH2 0x84A JUMP JUMPDEST SWAP1 POP SWAP2 SWAP1 POP JUMP JUMPDEST PUSH2 0x95A DUP2 PUSH2 0x93F JUMP JUMPDEST DUP3 MSTORE POP POP JUMP JUMPDEST PUSH2 0x969 DUP2 PUSH2 0x7E7 JUMP JUMPDEST DUP3 MSTORE POP POP JUMP JUMPDEST PUSH1 0x0 DUP2 ISZERO ISZERO SWAP1 POP SWAP2 SWAP1 POP JUMP JUMPDEST PUSH2 0x984 DUP2 PUSH2 0x96F JUMP JUMPDEST DUP3 MSTORE POP POP JUMP JUMPDEST PUSH1 0x0 PUSH1 0xA0 DUP3 ADD SWAP1 POP DUP2 DUP2 SUB PUSH1 0x0 DUP4 ADD MSTORE PUSH2 0x9A4 DUP2 DUP9 PUSH2 0x906 JUMP JUMPDEST SWAP1 POP PUSH2 0x9B3 PUSH1 0x20 DUP4 ADD DUP8 PUSH2 0x951 JUMP JUMPDEST PUSH2 0x9C0 PUSH1 0x40 DUP4 ADD DUP7 PUSH2 0x960 JUMP JUMPDEST PUSH2 0x9CD PUSH1 0x60 DUP4 ADD DUP6 PUSH2 0x97B JUMP JUMPDEST PUSH2 0x9DA PUSH1 0x80 DUP4 ADD DUP5 PUSH2 0x960 JUMP JUMPDEST SWAP7 SWAP6 POP POP POP POP POP POP JUMP JUMPDEST PUSH1 0x0 PUSH1 0x20 DUP3 ADD SWAP1 POP PUSH2 0x9F9 PUSH1 0x0 DUP4 ADD DUP5 PUSH2 0x960 JUMP JUMPDEST SWAP3 SWAP2 POP POP JUMP JUMPDEST PUSH1 0x0 DUP1 REVERT JUMPDEST PUSH1 0x0 DUP1 REVERT JUMPDEST PUSH32 0x4E487B7100000000000000000000000000000000000000000000000000000000 PUSH1 0x0 MSTORE PUSH1 0x41 PUSH1 0x4 MSTORE PUSH1 0x24 PUSH1 0x0 REVERT JUMPDEST PUSH2 0xA41 DUP3 PUSH2 0x8F5 JUMP JUMPDEST DUP2 ADD DUP2 DUP2 LT PUSH8 0xFFFFFFFFFFFFFFFF DUP3 GT OR ISZERO PUSH2 0xA60 JUMPI PUSH2 0xA5F PUSH2 0xA09 JUMP JUMPDEST JUMPDEST DUP1 PUSH1 0x40 MSTORE POP POP POP JUMP JUMPDEST PUSH1 0x0 PUSH2 0xA73 PUSH2 0x7D3 JUMP JUMPDEST SWAP1 POP PUSH2 0xA7F DUP3 DUP3 PUSH2 0xA38 JUMP JUMPDEST SWAP2 SWAP1 POP JUMP JUMPDEST PUSH1 0x0 PUSH8 0xFFFFFFFFFFFFFFFF DUP3 GT ISZERO PUSH2 0xA9F JUMPI PUSH2 0xA9E PUSH2 0xA09 JUMP JUMPDEST JUMPDEST PUSH2 0xAA8 DUP3 PUSH2 0x8F5 JUMP JUMPDEST SWAP1 POP PUSH1 0x20 DUP2 ADD SWAP1 POP SWAP2 SWAP1 POP JUMP JUMPDEST DUP3 DUP2 DUP4 CALLDATACOPY PUSH1 0x0 DUP4 DUP4 ADD MSTORE POP POP POP JUMP JUMPDEST PUSH1 0x0 PUSH2 0xAD7 PUSH2 0xAD2 DUP5 PUSH2 0xA84 JUMP JUMPDEST PUSH2 0xA69 JUMP JUMPDEST SWAP1 POP DUP3 DUP2 MSTORE PUSH1 0x20 DUP2 ADD DUP5 DUP5 DUP5 ADD GT ISZERO PUSH2 0xAF3 JUMPI PUSH2 0xAF2 PUSH2 0xA04 JUMP JUMPDEST JUMPDEST PUSH2 0xAFE DUP5 DUP3 DUP6 PUSH2 0xAB5 JUMP JUMPDEST POP SWAP4 SWAP3 POP POP POP JUMP JUMPDEST PUSH1 0x0 DUP3 PUSH1 0x1F DUP4 ADD SLT PUSH2 0xB1B JUMPI PUSH2 0xB1A PUSH2 0x9FF JUMP JUMPDEST JUMPDEST DUP2 CALLDATALOAD PUSH2 0xB2B DUP5 DUP3 PUSH1 0x20 DUP7 ADD PUSH2 0xAC4 JUMP JUMPDEST SWAP2 POP POP SWAP3 SWAP2 POP POP JUMP JUMPDEST PUSH2 0xB3D DUP2 PUSH2 0x93F JUMP JUMPDEST DUP2 EQ PUSH2 0xB48 JUMPI PUSH1 0x0 DUP1 REVERT JUMPDEST POP JUMP JUMPDEST PUSH1 0x0 DUP2 CALLDATALOAD SWAP1 POP PUSH2 0xB5A DUP2 PUSH2 0xB34 JUMP JUMPDEST SWAP3 SWAP2 POP POP JUMP JUMPDEST PUSH1 0x0 DUP1 PUSH1 0x0 PUSH1 0x60 DUP5 DUP7 SUB SLT ISZERO PUSH2 0xB79 JUMPI PUSH2 0xB78 PUSH2 0x7DD JUMP JUMPDEST JUMPDEST PUSH1 0x0 DUP5 ADD CALLDATALOAD PUSH8 0xFFFFFFFFFFFFFFFF DUP2 GT ISZERO PUSH2 0xB97 JUMPI PUSH2 0xB96 PUSH2 0x7E2 JUMP JUMPDEST JUMPDEST PUSH2 0xBA3 DUP7 DUP3 DUP8 ADD PUSH2 0xB06 JUMP JUMPDEST SWAP4 POP POP PUSH1 0x20 PUSH2 0xBB4 DUP7 DUP3 DUP8 ADD PUSH2 0x808 JUMP JUMPDEST SWAP3 POP POP PUSH1 0x40 PUSH2 0xBC5 DUP7 DUP3 DUP8 ADD PUSH2 0xB4B JUMP JUMPDEST SWAP2 POP POP SWAP3 POP SWAP3 POP SWAP3 JUMP JUMPDEST PUSH32 0x4E487B7100000000000000000000000000000000000000000000000000000000 PUSH1 0x0 MSTORE PUSH1 0x12 PUSH1 0x4 MSTORE PUSH1 0x24 PUSH1 0x0 REVERT JUMPDEST PUSH32 0x4E487B7100000000000000000000000000000000000000000000000000000000 PUSH1 0x0 MSTORE PUSH1 0x11 PUSH1 0x4 MSTORE PUSH1 0x24 PUSH1 0x0 REVERT JUMPDEST PUSH1 0x0 PUSH2 0xC38 DUP3 PUSH2 0x7E7 JUMP JUMPDEST SWAP2 POP PUSH2 0xC43 DUP4 PUSH2 0x7E7 JUMP JUMPDEST SWAP3 POP DUP3 PUSH2 0xC53 JUMPI PUSH2 0xC52 PUSH2 0xBCF JUMP JUMPDEST JUMPDEST DUP3 DUP3 DIV SWAP1 POP SWAP3 SWAP2 POP POP JUMP JUMPDEST PUSH32 0x4E487B7100000000000000000000000000000000000000000000000000000000 PUSH1 0x0 MSTORE PUSH1 0x22 PUSH1 0x4 MSTORE PUSH1 0x24 PUSH1 0x0 REVERT JUMPDEST PUSH1 0x0 PUSH1 0x2 DUP3 DIV SWAP1 POP PUSH1 0x1 DUP3 AND DUP1 PUSH2 0xCA5 JUMPI PUSH1 0x7F DUP3 AND SWAP2 POP JUMPDEST PUSH1 0x20 DUP3 LT DUP2 EQ ISZERO PUSH2 0xCB9 JUMPI PUSH2 0xCB8 PUSH2 0xC5E JUMP JUMPDEST JUMPDEST POP SWAP2 SWAP1 POP JUMP JUMPDEST PUSH1 0x0 PUSH2 0xCCA DUP3 PUSH2 0x7E7 JUMP JUMPDEST SWAP2 POP PUSH32 0xFFFFFFFFFFFFFFFFFFFFFFFFFFFFFFFFFFFFFFFFFFFFFFFFFFFFFFFFFFFFFFFF DUP3 EQ ISZERO PUSH2 0xCFD JUMPI PUSH2 0xCFC PUSH2 0xBFE JUMP JUMPDEST JUMPDEST PUSH1 0x1 DUP3 ADD SWAP1 POP SWAP2 SWAP1 POP JUMP INVALID LOG2 PUSH5 0x6970667358 0x22 SLT KECCAK256 PUSH14 0x2FB541086C6F45C0280D0934CB09 DUP5 0xFC SMOD PUSH1 0xA6 0x2C GT DUP11 0x4C SLT 0x21 PUSH13 0xE04FC5D1C864736F6C63430008 SIGNEXTEND STOP CALLER "},"gasEstimates":{"creation":{"codeDepositCost":"678000","executionCost":"infinite","totalCost":"infinite"},"external":{"approveRequest(uint256)":"infinite","approversCount()":"2496","contribute()":"51024","finalizeRequest(uint256)":"infinite","manager()":"2534","minimumContribution()":"2429","numRequests()":"2451","request(string,uint256,address)":"infinite","requests(uint256)":"infinite"}},"methodIdentifiers":{"approveRequest(uint256)":"d7d1bbdb","approversCount()":"82fde093","contribute()":"d7bb99ba","finalizeRequest(uint256)":"03441006","manager()":"481c6a75","minimumContribution()":"937e09b1","numRequests()":"9fb42b1f","request(string,uint256,address)":"cd6990e6","requests(uint256)":"81d12c58"}},"storageLayout":{"storage":[{"astId":41,"contract":"campaign.sol:Campaign","label":"manager","offset":0,"slot":"0","type":"t_address"},{"astId":43,"contract":"campaign.sol:Campaign","label":"minimumContribution","offset":0,"slot":"1","type":"t_uint256"},{"astId":48,"contract":"campaign.sol:Campaign","label":"requests","offset":0,"slot":"2","type":"t_mapping(t_uint256,t_struct(Request)72_storage)"},{"astId":52,"contract":"campaign.sol:Campaign","label":"approvers","offset":0,"slot":"3","type":"t_mapping(t_address,t_bool)"},{"astId":54,"contract":"campaign.sol:Campaign","label":"numRequests","offset":0,"slot":"4","type":"t_uint256"},{"astId":57,"contract":"campaign.sol:Campaign","label":"approversCount","offset":0,"slot":"5","type":"t_uint256"}],"types":{"t_address":{"encoding":"inplace","label":"address","numberOfBytes":"20"},"t_address_payable":{"encoding":"inplace","label":"address payable","numberOfBytes":"20"},"t_bool":{"encoding":"inplace","label":"bool","numberOfBytes":"1"},"t_mapping(t_address,t_bool)":{"encoding":"mapping","key":"t_address","label":"mapping(address => bool)","numberOfBytes":"32","value":"t_bool"},"t_mapping(t_uint256,t_struct(Request)72_storage)":{"encoding":"mapping","key":"t_uint256","label":"mapping(uint256 => struct Campaign.Request)","numberOfBytes":"32","value":"t_struct(Request)72_storage"},"t_string_storage":{"encoding":"bytes","label":"string","numberOfBytes":"32"},"t_struct(Request)72_storage":{"encoding":"inplace","label":"struct Campaign.Request","members":[{"astId":59,"contract":"campaign.sol:Campaign","label":"description","offset":0,"slot":"0","type":"t_string_storage"},{"astId":61,"contract":"campaign.sol:Campaign","label":"recipient","offset":0,"slot":"1","type":"t_address_payable"},{"astId":63,"contract":"campaign.sol:Campaign","label":"value","offset":0,"slot":"2","type":"t_uint256"},{"astId":65,"contract":"campaign.sol:Campaign","label":"complete","offset":0,"slot":"3","type":"t_bool"},{"astId":67,"contract":"campaign.sol:Campaign","label":"approvalCount","offset":0,"slot":"4","type":"t_uint256"},{"astId":71,"contract":"campaign.sol:Campaign","label":"voters","offset":0,"slot":"5","type":"t_mapping(t_address,t_bool)"}],"numberOfBytes":"192"},"t_uint256":{"encoding":"inplace","label":"uint256","numberOfBytes":"32"}}},"userdoc":{"kind":"user","methods":{},"version":1}}